:020000040800F2
:10000000780E00204503000821150008831400081D
:100010001D15000833060008D32300080000000067
:100020000000000000000000000000008D02000839
:100030003912000800000000E10200082D1B000832
:1000400069030008690300086903000869030008E0
:1000500069030008690300086903000869030008D0
:1000600069030008690300086903000869030008C0
:1000700069030008690300086903000869030008B0
:1000800069030008690300086903000869030008A0
:1000900039060008690300086903000861130008B5
:1000A0006903000869030008690300086903000880
:1000B00069030008A51B000869030008690300081C
:1000C0006903000869030008690300086903000860
:1000D0006903000839200008690300086903000863
:1000E0006903000869030008690300086903000840
:1000F0006903000869030008690300086903000830
:10010000690300086903000869030008690300081F
:100110006903000869030008D51B0008690300088B
:1001200069030008690300086903000869030008FF
:1001300069030008690300086903000869030008EF
:1001400079070008690300086903000869030008CB
:100150003D0F0008690300086903000869030008EF
:1001600069030008690300086903000869030008BF
:100170006903000869030008690300080000000023
:10018000690300086903000869030008690300089F
:10019000690300086903000869030008690300088F
:1001A00000000000000000006903000800F002F8F1
:1001B00000F05CF80AA090E8000C82448344AAF1A5
:1001C0000107DA4501D100F051F8AFF2090EBAE8A3
:1001D0000F0013F0010F18BFFB1A43F0010318477B
:1001E000D0310000F03100000A444FF0000C10F84C
:1001F000013B13F0070408BF10F8014B1D1108BFA5
:1002000010F8015B641E05D010F8016B641E01F844
:10021000016BF9D113F0080F1EBF10F8014BAD1C94
:100220000C1B09D16D1E58BF01F801CBFAD505E0B2
:1002300014F8016B01F8016B6D1EF9D59142D6D30C
:10024000704700000023002400250026103A28BF34
:1002500078C1FBD8520728BF30C148BF0B60704738
:100260001FB503F09FF81FBD10B510BD00F098F842
:100270001146FFF7F5FF02F0C1FD00F0B6F803B438
:10028000FFF7F2FF03BC00F0B9F800002A4B196831
:100290000868B0E8F04F80F30988BFF36F8F4FF024
:1002A000000080F3118870470000000006480068D5
:1002B000006880F3088862B661B6BFF34F8FBFF362
:1002C0006F8F00DF00BF00BF08ED00E0DFF80C001B
:1002D000016841F470010160704700BF88ED00E0E3
:1002E000EFF30980BFF36F8F134B1A681EF0100FE6
:1002F00008BF20ED108A20E9F04F106008B44FF0DD
:10030000500080F31188BFF34F8FBFF36F8F02F05F
:100310002FFF4FF0000080F3118808BC19680868AF
:10032000B0E8F04F1EF0100F08BFB0EC108A80F359
:100330000988BFF36F8F704724000020EFF305801A
:10034000704700000C48016841F4700101600B48DF
:1003500080470B480047FEE7FEE7FEE7FEE7FEE7C3
:10036000FEE7FEE7FEE7FEE7FEE700000548064978
:10037000044A064B7047000088ED00E03D1B000872
:10038000AD010008780A0020780E0020780A0020CD
:10039000704770477047000000487047140A0020FB
:1003A0007546FFF7F9FFAE4605006946534620F053
:1003B0000700854618B020B5FFF7D8FFBDE82040FC
:1003C0004FF000064FF000074FF000084FF0000B11
:1003D00021F00701AC46ACE8C009ACE8C009ACE8C4
:1003E000C009ACE8C0098D46704710B50446AFF3AC
:1003F00000802046BDE81040FFF741BF01491820AA
:10040000ABBEFEE7260002007047CA430260704799
:1004100021B1826842F00102826003E0826822F02A
:1004200001028260704700000021084A1168084AF2
:100430001140D0E900231A4383681A43C3681A4362
:100440001143044AC2F8041370470000042301401A
:10045000E030FCFF002001400146C86C80B27047CC
:100460000246002013680B400BB1012000E0002081
:100470007047000030B50246002000235068104C41
:1004800020400D790C6844EA0524204350609068B0
:100490000C4C2040D1E903542C438D682C434D79FA
:1004A00044EA450420439060D06A20F470000C7D3B
:1004B000641EE4B2234340EA0350D06230BD000022
:1004C000FFFEFFFCFDF7FFC0F0B504460D4600201F
:1004D0000021092D11DDE068A5F10A0606EB4607AB
:1004E000072606FA07F18843A5F10A0606EB460639
:1004F00003FA06F10843E0600CE0206905EB4507CC
:10050000072606FA07F1884305EB450603FA06F1CC
:1005100008432061072A0FDA606B561E06EB860738
:100520001F2606FA07F18843561E06EB860605FAD3
:1005300006F10843606322E00D2A0FDA206BD61F14
:1005400006EB86071F2606FA07F18843D61F06EB3F
:10055000860605FA06F10843206310E0E06AA2F17E
:100560000D0606EB86071F2606FA07F18843A2F15F
:100570000D0606EB860605FA06F10843E062F0BDBB
:10058000816841F0804181607047000038B10849BE
:10059000096841F40001074AC2F8041306E004495F
:1005A000096821F40001034AC2F8041370470000EF
:1005B000042301400020014038B54FF4407000F0A2
:1005C000EDFF4FF47A7002F0FFF902F0CDFB02F07C
:1005D000D1FC02F041FC02F071FA5A2147F230508E
:1005E00001F0FAFE02F098FB5A214EF6602001F06D
:1005F00003FB002005231A460121009000F034F887
:10060000002005231A460121009000F0CDF80024B7
:1006100008E0204602F054FC40F2C52002F00AFA3D
:10062000601CC4B2042CF4DB02F074FC02F00AF982
:1006300038BD00BFFEE7000010B50221084800F0F9
:1006400015FA58B10221064800F038F9054A002190
:10065000034800F02EFB034800F0A4FB10BD00008F
:10066000006400403C0500202DE9F0418AB00446BA
:100670000D4616461F46DDF840800121082000F097
:1006800097FF0121480600F0A3FF0121480600F072
:10069000AFFF00214FF0007000F0AAFF0320089088
:1006A00002208DF8240000208DF8260003208DF80C
:1006B000250001208DF8270008A92D4800F072FEC2
:1006C000092200212A4800F0B5FE0922012128480C
:1006D00000F0B0FE00208DF81A0001208DF81B00FC
:1006E00000208DF81C008DF81D008DF81E008DF87F
:1006F0001F008DF816808DF817408DF818608DF862
:100700001950ADF8147005A91A4800F048FA0020F5
:100710008DF80E008DF80F0001208DF810000020DC
:10072000ADF80400ADF80600ADF80800ADF80A0019
:10073000ADF80C0001208DF8110001A800F012F9AD
:10074000012202210B4800F021FA14208DF800004C
:1007500004208DF8010000208DF8020001208DF8A2
:100760000300684600F0DEFE00200AB0BDE8F0811C
:10077000000C02400064004010B50221084800F05F
:1007800075F958B10221064800F098F8054A002191
:10079000034800F08EFA034800F004FB10BD00008F
:1007A00000680040500500202DE9F0418AB0044661
:1007B0000D4616461F46DDF840800121022000F05C
:1007C000F7FE0121880600F003FF0121880600F0F2
:1007D0000FFF00214FF0806000F00AFF4FF44050FF
:1007E000089002208DF8240000208DF826000320B8
:1007F0008DF8250001208DF8270008A92D4800F06C
:10080000D1FD09220C212B4800F014FE09220D21F4
:10081000284800F00FFE00208DF81A0001208DF806
:100820001B0000208DF81C008DF81D008DF81E00A7
:100830008DF81F008DF816808DF817408DF8186020
:100840008DF81950ADF8147005A91B4800F0A7F9F0
:100850000E208DF80E0000208DF80F0001208DF87D
:1008600010000020ADF80400ADF80600ADF8080057
:10087000ADF80A00ADF80C0001208DF8110001A8B8
:1008800000F070F8012202210B4800F07FF94020AF
:100890008DF8000004208DF8010000208DF8020082
:1008A00001208DF80300684600F03CFE00200AB0ED
:1008B000BDE8F0810004024000680040B1F5007F0F
:1008C0003AD00FDC202928D006DC01291CD00429CD
:1008D0001DD0082940D11DE0402921D0B1F5807FED
:1008E0003AD126E0B1F5004F31D006DCB1F5806F8A
:1008F00025D0B1F5006F2FD124E0B1F5803F12D0A3
:10090000B1F5003F28D111E0154A826025E00822A8
:10091000C26022E01022C2601FE0082202611CE0D7
:100920001022026119E00822426016E010224260A3
:1009300013E00422426010E0042242600DE0042231
:1009400042600AE0002282610422426005E0002247
:1009500082610422426000E000BF00BF70470000D7
:100960000101010010B50021837A012202FA03F18E
:100970003D4A126842F001023B4B1A603A4A1C326F
:1009800012688A43384B1C331A60027BCAB9364A54
:100990000C3212688A43344B0C331A604288C38885
:1009A00042EA0343304A4032847A42F834300288C3
:1009B000838842EA03432C4A4032847A02EBC40221
:1009C0005360027B012A19D1274A0C3212680A436C
:1009D000254B0C331A604288038842EA0343224ABB
:1009E0004032847A42F83430C288838842EA034332
:1009F0001D4A4032847A02EBC4025360C27A3AB98B
:100A0000194A121D12688A43174B1B1D1A6006E013
:100A1000154A121D12680A43134B1B1D1A600289E6
:100A200032B9114A143212688A430F4B14331A60D8
:100A30000289012A06D10C4A143212680A430A4B71
:100A400014331A60427B012A06D1074A1C3212680D
:100A50000A43054B1C331A60034A126822F0010254
:100A6000014B1A6010BD00000066004070B50446DE
:100A70000D46002660692840002871D0B5F5807FBA
:100A80005CD010DC082D35D006DC012D20D0022DE5
:100A900024D0042D72D127E0102D31D0202D35D057
:100AA000402D6BD138E0B5F5004F60D009DCB5F5CD
:100AB000007F49D0B5F5806F4CD0B5F5006F5DD1A2
:100AC0004FE0B5F5803F2DD0B5F5003F56D12FE072
:100AD000A0682D4900F028FA064651E0E06803219D
:100AE00000F022FA06464BE0E068082100F01CFA0C
:100AF000064645E0E068102100F016FA06463FE0A1
:100B00002069032100F010FA064639E02069082127
:100B100000F00AFA064633E02069102100F004FADA
:100B200006462DE06068082100F0FEF9064627E041
:100B30006068102100F0F8F9064621E0A069012163
:100B400000F0F2F906461BE0A069022100F0ECF982
:100B5000064615E0A069042100F0E6F906460FE01C
:100B60000FE0A069702100F0DFF9064608E0606838
:100B7000042100F0D9F9064602E0FFE7002600BF95
:100B800000E00026304670BD010101001AB1436942
:100B90000B43436102E043698B434361704730B5C7
:100BA000024600200023146824F002041460146834
:100BB00044F00104146000E05B1C546804F001047C
:100BC0001CB94FF6FF74A342F6D1546804F0010437
:100BD0000CB900206CE08C79012C04D1146844F02D
:100BE0008004146003E0146824F080041460CC795D
:100BF000012C04D1146844F04004146003E014682C
:100C000024F0400414600C7A012C04D1146844F0E0
:100C10002004146003E0146824F0200414604C7A6B
:100C2000012C04D1146844F01004146003E014682B
:100C300024F0100414608C7A012C04D1146844F060
:100C40000804146003E0146824F008041460CC7AEB
:100C5000012C04D1146844F00404146003E0146807
:100C600024F0040414608C78A407CD7844EA056469
:100C70000D7944EA05444D7944EA05540D886D1E0A
:100C80002C43D461146824F001041460002300E0B4
:100C90005B1C546804F001041CB14FF6FF74A342BE
:100CA000F6D1546804F001040CB1002000E00120EA
:100CB00030BD10B500F5D87303EB01131B6803F0CA
:100CC00004031372137A53B900F5D87303EB0113BD
:100CD0001B6840F2FF7404EA5353136009E000F507
:100CE000D87303EB01131B686FF0604404EAD3036D
:100CF000536000F5D87303EB01131B6803F0020384
:100D0000537200F5D87303EB01135B6803F00F0314
:100D1000937200F5D87303EB01135B681B0AD3745D
:100D200000F5D87303EB01139B68D37200F5D873F9
:100D300003EB01139B681C0A147300F5D87303EBD3
:100D400001139B681C0C547300F5D87303EB01135B
:100D50009B681B0E937300F5D87303EB0113DB68DC
:100D6000D37300F5D87303EB0113DB681C0A14740A
:100D700000F5D87303EB0113DB681C0C547400F509
:100D8000D87303EB0113DB681B0E937421B9C3689E
:100D900043F02003C36003E0036943F020030361D1
:100DA00010BD000010B504462068A0F201200728FD
:100DB0007ED2DFE800F0616263640423420055489C
:100DC000008800B253490881207BE17A40EA012083
:100DD00050490880A17B607B41EA002000B24D4968
:100DE0008880217CE07B41EA002000B249494880AC
:100DF000607C8871012000F021FA88E04648008874
:100E000000B245490881207BE17A40EA012042494D
:100E10000880A17B607B41EA002000B23E498880C7
:100E2000217CE07B41EA002000B23B494880607CA5
:100E30008871022000F002FA69E03848008800B2A8
:100E400036490881207BE17A40EA01203349088055
:100E5000A17B607B41EA002000B230494880217CC0
:100E6000E07B41EA002000B22C498880607C8871D8
:100E7000032000F0E3F94AE000BF00BF00BF207884
:100E8000401E274908700846007800EB800025497D
:100E900031F8100000B22249097801EB8101214AA2
:100EA00002EB41010881207BE17A40EA012000E069
:100EB0002CE01B49097801EB810122F81100A17B8C
:100EC000607B41EA002000B21549097801EB8101FD
:100ED00002EB41014880217CE07B41EA002000B226
:100EE0000F49097801EB810102EB41018880607CA8
:100EF0000B49097801EB810102EB41018871084936
:100F00000978091DC8B200F099F900E000BF00BFE0
:100F100010BD0000E0040020EA040020F4040020DA
:100F2000C8000020FE0400200246002002EA01035F
:100F30000BB1012000E000207047000010B51049FF
:100F4000104800F029F9C8B10D490E4800F022F808
:100F500001F072FF02F06CF901280FD00A490B482A
:100F6000006802F08DF80848006838B14FF08050F2
:100F700007490860BFF34F8FBFF36F8F10BD0000AC
:100F8000000800208864024054010020D80000209E
:100F900004ED00E00246094B9A4201D2084801E004
:100FA0000648103801F000531BB1064B0B40C360DC
:100FB00002E0044B0B408360704700001064024065
:100FC000006002407D0F7D0F21B1026842F00102F6
:100FD000026003E0026822F0010202607047000034
:100FE000016821F001010160002101604160816020
:100FF000C1600161212141614A49884204D13D21FA
:10100000484A103A91608CE046491831884205D12F
:101010004FF47461434A103A916082E041493031A3
:10102000884205D14FF474113E4A103A916078E03D
:101030003C494831884205D14FF07461394A103A31
:1010400091606EE037496031884204D13649354AB3
:10105000103AD16065E033497831884204D1334990
:10106000304A103AD1605CE02E499031884204D178
:101070002F492C4A103AD16053E02A49A8318842BE
:1010800005D14FF03D51274A103AD16049E0294936
:10109000884204D13D21274A083A116041E02549A0
:1010A0001831884205D14FF47461224A083A116020
:1010B00037E020493031884205D14FF474111D4A80
:1010C000083A11602DE01B494831884205D14FF0A4
:1010D0007461184A083A116023E016496031884269
:1010E00004D11149134A121F11601AE011497831D5
:1010F000884204D10D490F4A121F116011E00D49B9
:101100009031884204D10A490A4A121F116008E04E
:101110000849A831884204D14FF03D51054A121FB9
:1011200011607047106002403D000020400F002019
:1011300000003D201064024021B1026842F4802288
:10114000026003E0026822F480220260704722B14C
:10115000036843F40023036003E0036823F40023DF
:10116000036001617047014600200A6802F0010235
:101170000AB1012000E0002070470146486880B2B3
:101180007047014600200A6802F400220AB10120DB
:1011900000E000207047000030B503460A460020FA
:1011A00000240B4DAB4201D20A4901E00849103935
:1011B00002F000550DB14C6800E00C68064D2C4063
:1011C00004EA02050DB1012000E0002030BD00005E
:1011D00010640240006002407D0F7D0F10B50022B8
:1011E0000268134B1A40CC680B6823434C692343B5
:1011F0008C692343CC6923430C6A23434C6A234301
:101200008C6A23434C6B23438C6B23431A43026049
:10121000426922F00702D1E90B3423431A434261A9
:101220000B6943604B6883608B68C36010BD00002E
:101230003F801CF0416070477047000010B50446C5
:1012400004EBC400454901EB8000006804EBC401D5
:10125000424A02EB8101486001F0FAFF04EBC4014D
:101260003E4A02EB8101086004EBC400114601EB29
:101270008000C07CC0F38010B0B104EBC40001EB6F
:101280008000C07C20F0400004EBC40102EB81012F
:10129000C87404EBC400114601EB8000006804EB45
:1012A000C40102EB8101C86004EBC4002B4901EBCF
:1012B0008000806990B304EBC401284A02EB8101ED
:1012C0008869804758B304EBC400244901EB8000CF
:1012D000C07C20F02000203004EBC4011F4A02EB48
:1012E0008101C87404EBC400114601EB8000C07C8E
:1012F00020F08000803004EBC40102EB8101C8744F
:1013000004EBC400114601EB8000006A28B304EB33
:10131000C40102EB8101086A80471EE00FE0FFE78D
:1013200004EBC4000D4901EB8000C07C20F080007C
:1013300004EBC401094A02EB8101C8740DE004EB1F
:10134000C400064901EB8000C07C20F0800004EB63
:10135000C401024A02EB8101C87410BD640500207B
:1013600010B54FF4807000F011F840B14FF4807068
:1013700000F006F801F068FD172000F0F9FA10BD42
:101380000149086070470000143C014001460020FC
:10139000034A12680A400AB1012000E000207047A9
:1013A000143C0140F0B50A4600210023002400BF90
:1013B0003DE0012505FA01F3156805EA03049C42A6
:1013C00034D105684F000326BE40B543056015794A
:1013D0004E00B5400668354305601579012D02D0F1
:1013E0001579022D16D185684F000326BE40B543FE
:1013F000856055794E00B5408668354385604568FF
:1014000001268E40B5434560456896798E40B6B258
:1014100035434560C5684F000326BE40B543C560EF
:10142000D5794E00B540C6683543C560491C1029C2
:10143000BFD3F0BDF0B5002300244D07ED0E02FA36
:1014400005F3CE1000F1200555F826504E07F70E93
:101450000F26BE40B543CF1000F1200646F82750B6
:10146000CE1000F1200555F8265045EA0304CE10B1
:1014700000F1200545F82640F0BD41837047018307
:10148000704700BFFEE7000070B506460C461546E3
:101490001548007838B3288888B9144890ED000AB8
:1014A000134880ED000A114890ED010A104880EDC4
:1014B000010A0E4890ED020A0D4880ED020A0D481F
:1014C00002782B460C490A4801F0F2FB084890EDDF
:1014D000000A84ED000A90ED010A84ED010A90ED06
:1014E000020A84ED020A70BD4C010020C8080020E9
:1014F000D4080020A80800200809002091ED000A67
:10150000054A82ED000A91ED010A82ED010A91ED92
:10151000020A82ED020A7047C808002000BFFEE7F9
:101520007047000070B5002100230F22C4781CB35F
:10153000174C246804F4E064C4F5E064C4F30721A4
:10154000C1F10404E3B20A4144789C40E1B28478DA
:10155000144021430C07210E0E4C05786155047888
:1015600004F01F050124AC4005786D11AD0005F1B4
:10157000E025C5F8004109E0047804F01F050124C6
:10158000AC40054D0678761145F8264070BD000048
:101590000CED00E000E400E080E100E002490143DE
:1015A000024A1160704700000000FA050CED00E0EF
:1015B00029B1064A12680243044B1A6004E0034A48
:1015C00012688243014B1A607047000030380240B5
:1015D00029B1064A12680243044B1A6004E0034A28
:1015E00012688243014B1A60704700004038024085
:1015F00029B1064A12680243044B1A6004E0034A08
:1016000012688243014B1A60704700002038024084
:1016100029B1064A12680243044B1A6004E0034AE7
:1016200012688243014B1A60704700004438024040
:1016300029B1064A12680243044B1A6004E0034AC7
:1016400012688243014B1A60704700002438024040
:10165000F0B5002100220024022500260223324F8B
:101660003F6807F00C0121B1042905D0082937D1C2
:1016700005E02E4F076036E02D4F076033E02A4F1C
:101680003F1F3F68C7F38056274F3F1F3F6807F053
:101690003F036EB1264FB7FBF3F7DFF88CC0ACF118
:1016A000040CDCF800C0CCF3881C07FB0CF40CE045
:1016B0001E4FB7FBF3F7DFF870C0ACF1040CDCF899
:1016C00000C0CCF3881C07FB0CF4174F3F1F3F688A
:1016D000C7F301477F1C7D00B4FBF5F7076002E00C
:1016E000124F076000BF00BF0F4F3F6807F0F001C7
:1016F0000909104F7A5C0768D74047600A4F3F6876
:1017000007F4E051890A0B4F7A5C4768D74087603D
:10171000054F3F6807F46041490B064F7A5C476804
:10172000D740C760F0BD0000083802400024F40034
:10173000001BB7001400002070B590B004460E46A0
:10174000154601214A48FFF733FF01211020FFF71A
:101750005FFF01211020FFF76BFF00211020FFF732
:1017600067FF072211464348FFF764FE80200E9072
:1017700002208DF83C0000208DF83E0003208DF8FB
:101780003D0000208DF83F000EA93A48FFF70AFE01
:10179000394800F0E7FC39480A900020ADF82C00E9
:1017A000ADF82E004FF48060ADF830000420ADF8A5
:1017B00032000020ADF834000AA92F4800F09AFD4D
:1017C000012240212C4800F0C4FC10212A4800F0DE
:1017D000ABFC012240F22441274800F065FD0121C5
:1017E000254800F0AAFC25208DF83C0004208DF847
:1017F0003D0000208DF83E0001208DF83F000FA82D
:10180000FFF790FE1E48FFF7EBFB4FF000600190E2
:101810001948001D0290039400200490059506903D
:101820004FF4806007900020089009904FF480707A
:101830000A904FF440300B9000200C900D900E90C9
:101840000F9001A90E48FFF7C9FC002231460C4851
:10185000FFF77DFC01210A48FFF76EFC00210848D4
:10186000FFF7B2FB01210648FFF7AEFB10B070BDD9
:10187000020040000004024000100140A086010068
:101880004064024010B50021014800F056FC10BD34
:101890000010014000B101B970470278437842EA74
:1018A0000322C2F30A020A804278D210837842EA05
:1018B0004312C2F30A024A8082789211C37842EA44
:1018C0008302037942EA8322C2F30A028A80027900
:1018D0005210437942EAC312C2F30A02CA80427923
:1018E000C2F301128A72427912119308CB72827983
:1018F000C37942EA032212B28A81027A437A42EA27
:10190000032213B201F10C02CB81827AC37A42EA3C
:10191000032213B201F10C020B82037B8B74437B15
:10192000CB74827BC37B42EA03228A82027C437CA3
:1019300042EA032212B20A810A88A2F5806212B238
:101940000A804A88A2F5806212B24A808A88A2F58B
:10195000806212B28A80CA88A2F5806212B2CA80FE
:101960000A89A2F5806212B20A8100BF94E70000E2
:1019700010B5044600211848FFF726FB0021164841
:101980001830FFF721FB00BF1348FFF7ECFB0028DE
:10199000FAD100BF10481830FFF7E5FB0028F9D155
:1019A0000E490D481830FFF7F5FA0D490A48FFF7C0
:1019B000F1FA21460848FFF73DFC21460648183059
:1019C000FFF738FC012104481830FFF7FDFA012128
:1019D0000148FFF7F9FA10BD70640240000C0020C6
:1019E000300000200CB500200190009041480068B4
:1019F00040F480303F49086000BF3E48006800F472
:101A0000003000900198401C0190009818B901988E
:101A1000B0F5A04FF1D13748006800F4003010B1A4
:101A20000120009001E0002000900098012860D182
:101A300030484030006840F080502E494031086006
:101A40002D48006840F440402B4908602948083080
:101A500000682849083108600846006840F40040E2
:101A600008600846006840F4A05008602348091F39
:101A70000860081F006840F08070091F086000BF00
:101A80001C48006800F000700028F9D01A4800686F
:101A900040F480301849086000BF1748406800F4DF
:101AA00080300028F9D01448006840F40030124912
:101AB000086000BF1048406800F400300028F9D0EA
:101AC00040F205700E4908600A480830006820F0AE
:101AD00003000849083108600846006840F0020029
:101AE000086000BF03480830006800F00C000828B8
:101AF000F8D10CBD0038024000700040062D4008AF
:101B0000003C0240042808D14FF0E021096941F06F
:101B100004014FF0E022116107E04FF0E021096974
:101B200021F004014FF0E0221161704710B501F07F
:101B30007FFB012801D001F061FB10BD10B51548F5
:101B4000006840F47000134908601348006840F0D2
:101B500001001149086000200F49083108600E4853
:101B600000680E4908400C4908600D48091D0860CE
:101B7000081F006820F48020091F08600020064923
:101B80000C310860FFF72EFF4FF0006001498039EB
:101B9000086010BD88ED00E000380240FFFFF6FE4F
:101BA0001030002410B50121084800F053F960B14D
:101BB0000121064800F068F8054802684068521C98
:101BC00040F1000002490A60486010BD0004004076
:101BD000D000002010B50121064800F03BF938B1D3
:101BE0000121044800F050F80021024800F04FF8AD
:101BF00010BD0000001000407FB505460C460121D5
:101C00001020FFF7E5FC01211020FFF7F1FC002177
:101C10001020FFF7EDFC154800F054F8681E029004
:101C2000601E80B2ADF804000020ADF80600ADF8EB
:101C30000C0001A90D4800F0BDF9012211460B4826
:101C400000F019F936208DF8000004208DF801000D
:101C500000208DF8020001208DF803006846FFF790
:101C600061FC0121014800F012F87FBD0010004026
:101C700021B1028842F08002028004E002884FF61F
:101C80007F731A4002807047CA430282704721B1B5
:101C9000028842F00102028004E002884FF6FE73DF
:101CA0001A400280704731B1B0F8442042F400423B
:101CB000A0F8442005E0B0F84420C2F30E02A0F8DA
:101CC0004420704710B504465548844208D101218C
:101CD0000846FFF7ADFC00210120FFF7A9FC9DE0BD
:101CE000B4F1804F08D101210846FFF781FC0021A3
:101CF0000120FFF77DFC91E04A48844208D1012190
:101D00000220FFF775FC00210220FFF771FC85E03F
:101D10004548844208D101210420FFF769FC0021D5
:101D20000420FFF765FC79E04048844208D1012196
:101D30000820FFF75DFC00210820FFF759FC6DE04B
:101D40003B48844208D101211020FFF751FC0021BB
:101D50001020FFF74DFC61E03648844208D1012194
:101D60002020FFF745FC00212020FFF741FC55E033
:101D70003148844208D101210220FFF759FC00219B
:101D80000220FFF755FC49E02C48844209D101218B
:101D90000804FFF74DFC00214FF48030FFF748FCAA
:101DA0003CE02748844209D101214804FFF740FC68
:101DB00000214FF40030FFF73BFC2FE02148844224
:101DC00009D101218804FFF733FC00214FF4802062
:101DD000FFF72EFC22E01C48844208D1012140205C
:101DE000FFF706FC00214020FFF702FC16E0174831
:101DF000844208D101218020FFF7FAFB00218020D6
:101E0000FFF7F6FB0AE01248844207D10121801552
:101E1000FFF7EEFB0021A015FFF7EAFB10BD000065
:101E2000000001400004004000080040000C004099
:101E30000010004000140040000401400040014038
:101E4000004401400048014000180040001C0040D0
:101E50000020004030B50246002000230024158AEF
:101E600005EA0103958905EA010413B10CB10120CB
:101E700000E0002030BD1AB183890B43838102E06A
:101E800083898B438381704770B50024002200232F
:101E9000058C4FF6FE7635400584028C8388048BD2
:101EA0004FF68F752C40B51E2C400D882C43751EA7
:101EB0002A408D892A434D882A43104DA84202D0DA
:101EC0000F4DA84213D14FF6F7752A40CD892A430A
:101ED0004FF6FB752A408D882A434FF6FF652B404D
:101EE0004FF6FF552B400D8A2B434D8A2B438380A1
:101EF00004838D684563028470BD000000000140CA
:101F0000000401400A460021018B4FF6F773194087
:101F1000114301837047000070B5002200230024A4
:101F2000058C4EF6FF7635400584038C8488828BC1
:101F300048F6FF752A404FF6FF452A400D884FF6B8
:101F4000FF7606EA05252A434DF6FF752B408D895D
:101F500006EA05352B434D8806EA05352B430A4D25
:101F6000A84202D0094DA84208D14BF6FF752C407B
:101F70000D8A4FF6FF7606EA85152C43848082830E
:101F80008D680564038470BD0000014000040140B9
:101F90000A460021818B4FF2FF7319404FF6FF7301
:101FA00003EA022319438183704741637047016448
:101FB0007047000000220288184B98420ED0184B40
:101FC00098420BD0B0F1804F08D0164B984205D004
:101FD000154B984202D0154B984204D14FF68F739F
:101FE0001A404B881A43124B984207D0114B984223
:101FF00004D04FF6FF431A400B891A4302804B6806
:10200000C3620B880385054B984202D0044B98426B
:1020100001D18B7A0386012383827047000001403F
:10202000000401400004004000080040000C004093
:10203000001000400014004010B540F22551344813
:1020400000F008F918B1324800F0BEF95FE040F244
:1020500024412F4800F0FEF8002858D02C4800F00A
:10206000B3F92C48FFF78DF840BB00212948FEF753
:10207000ABFF2848FFF781F8C0F12400264908800B
:1020800024212448FFF7D6F82248006840F40020B5
:102090002049086021491F48FEF77CFF01211D48A7
:1020A000FEF792FF1C480088122830D11C491D48B9
:1020B000FFF7F0FB0020FFF7C1F828E000211548EA
:1020C000FEF782FF1348FFF758F8C0F124001249C9
:1020D000088024210F48FFF7ADF80E48006820F46F
:1020E00000200C4908600D490A48FEF753FF012102
:1020F0000848FEF769FF08480088122807D10849F8
:1021000008482430FFF7C6FB0020FFF797F810BD02
:1021100000100140406402405801002000003010CF
:10212000B4090020CA09002001F40072B2F5007F52
:1021300000D100BFCA430280704721B1828942F4B6
:102140000052828104E082894DF6FF731A40828139
:1021500070471AB1838A0B43838202E0838A8B43E0
:102160008382704710B504463248844208D1012169
:102170001020FFF75DFA00211020FFF759FA57E011
:102180002D48844209D101214804FFF731FA00218A
:102190004FF40030FFF72CFA4AE02848844209D176
:1021A00001218804FFF724FA00214FF48020FFF773
:1021B0001FFA3DE02248844209D10121C804FFF7FB
:1021C00017FA00214FF40020FFF712FA30E01D4803
:1021D000844209D101210805FFF70AFA00214FF4D2
:1021E0008010FFF705FA23E01748844208D1012147
:1021F0002020FFF71DFA00212020FFF719FA17E031
:102200001248844209D101218807FFF7F1F9002122
:102210004FF08040FFF7ECF90AE00D48844207D107
:1022200001214005FFF7E4F900216005FFF7E0F91F
:1022300010BD000000100140004400400048004074
:10224000004C004000500040001401400078004065
:10225000007C004070B502460024002300250020C9
:1022600040F66A16B14200D100BFC1F3421501F039
:102270001F03012606FA03F3012D02D1968933408C
:1022800006E0022D02D1168A334001E0968A3340DF
:102290000C12012606FA04F41688344013B10CB16E
:1022A000012000E0002070BDF0B5034600240026A8
:1022B0000025002040F66A17B94200D100BF184639
:1022C000C1F3421401F01F06012707FA06F5012C9D
:1022D00001D10C3004E0022C01D1103000E01430A8
:1022E0001AB107682F43076002E00768AF43076031
:1022F000F0BD00002DE9FF4705460E460024A1462B
:1023000000BFA046B08900B100BF2C8A24F440541D
:10231000F08804432C82AC8941F20C608443B0887D
:1023200031890843718908430443AC81AC8A24F4A1
:102330004074B0890443AC826846FFF789F92048AD
:10234000854202D01F48854202D1DDF80C9001E0A1
:10235000DDF80890A88900F4004040B109EBC900FD
:1023600000EB091031684900B0FBF1F707E009EB19
:10237000C90000EB091031688900B0FBF1F7642057
:10238000B7FBF0F004012009642101FB1078A88953
:1023900000F4004040B1322000EBC800B0FBF1F087
:1023A00000F00700044308E0322000EB081064212D
:1023B000B0FBF1F000F00F0004432C81BDE8FF8773
:1023C000001001400014014001468888C0F3080055
:1023D000704700BFFEE7000030B58BB005460C46E5
:1023E00001214020FFF7F4F801218020FFF7E0F8F9
:1023F00001214020FFF7FCF800214020FFF7F8F80A
:10240000092206212048FFF715F8402009900220F4
:102410008DF8280003208DF8290000208DF82A006F
:1024200002208DF82B0009A91748FEF7BBFF60209A
:10243000ADF804000120ADF806000020ADF8100052
:1024400001A91248FFF720FD08211048FFF75AFDA7
:1024500001210E48FFF70CFC681E0790601E80B239
:10246000ADF818000020ADF81A00ADF8200006A95C
:102470000648FFF79FFD01210448FFF708FC00F024
:1024800007F80BB030BD0000001C024000180040EF
:1024900010B500210148FFF788FD10BD001800406D
:1024A00070B504460D460448048029460248283881
:1024B000FFF77BFD70BD0000281800402DE9F05F9C
:1024C0000546884691469A46DDF828B07DB1B8F1B8
:1024D000000F0CD0B9F1000F09D0BAF1000F06D0EF
:1024E000BBF1000F03D00B9808B10C9808B9BDE8F8
:1024F000F09F002600270024288A698A401A04B227
:10250000002C03DA41F6FF70204404B2204604EBAD
:10251000D0712A8AA2EB61010CB2B4F5005F04DB32
:10252000A4F5F850FF3804B205E0002C03DA41F6B8
:10253000FF70204404B2A8F80040B8F80010288AC0
:1025400000F060FC8AED000AB8F80010688A00F01C
:1025500059FC8BED000A95ED020ADFED370A80EE9B
:10256000201ABDEEC10A10EE100A04B2A88A001BA0
:1025700006B295ED030ADFED300A80EE201ABDEEBB
:10258000C10A10EE100A04B2E88A001B07B2B6F5C1
:10259000005F04DBA6F5F850FF3806B205E0002E18
:1025A00003DA41F6FF70304406B2B7F5005F04DB92
:1025B000A7F5F850FF3807B205E0002F03DA41F61F
:1025C000FF70384407B2F01B04B2B4F5805F04DD3D
:1025D000A4F5F850FF3804B206E014F5805F03DA82
:1025E00041F6FF70204404B2204604EBD071A6EB04
:1025F00061010CB2B4F5005F04DBA4F5F850FF38BC
:1026000004B205E0002C03DA41F6FF70204404B266
:10261000A9F80040B9F80010A88A00F0F3FB0B9865
:1026200080ED000AB9F80010E88A00F0EBFB0C9886
:1026300080ED000A00BF5AE7DB0F493AF8B50024E5
:10264000002500BF69E0364968180122694600F09C
:1026500019FA9DF8000004EB840101EBC401314A32
:1026600050549DF8010004EB840101EBC4011144B6
:1026700048709DF8020004EB840101EBC401114491
:1026800088709DF8030004EB840101EBC401114440
:10269000C870281D85B204EB840303EBC4031646FF
:1026A00033441B7903F07F0204EB840303EBC40380
:1026B0003344D3F805101A4BE81800F0E3F904EBA3
:1026C000840000EBC40031460844007900F07F002C
:1026D00005EB800085B204EB840000EBC4000844E5
:1026E000C078552817D004EB840000EBC4000844E0
:1026F000D0F8090078B104EB840000EBC400084472
:10270000007920F08000803004EB840101EBC401EB
:10271000324611440871601CC4B2052C93DBF8BD2D
:1027200000001E089C0400207CB506460D46344679
:10273000ADB994ED042AF0EE421A94ED032AB0EEFE
:10274000421A94ED022AF0EE420A94ED012AB0EE0C
:10275000420A6188208800F0E7FB00207CBD012D43
:1027600016D104F11000011F0B1F221DCDE900102E
:10277000A11C204600F0C2F818B1FFF789FE012025
:10278000ECE744F620611F20FFF78AFE0020E5E712
:102790000020E3E770B506460C46354634B92946B5
:1027A00005F10C00FEF7AAFE002070BD012C1BD124
:1027B0000E4A294605F10C00FEF766FE0B4800881C
:1027C00044F62061884206DD002008490880FFF7B2
:1027D0005FFE0120E9E7FFF755F842F210715F2034
:1027E000FFF75EFE0020E0E70020DEE7C6000020E5
:1027F00070B505460C460CB9012070BD00200F498C
:10280000087000F027FABDEEC00A10EE100A0A3078
:1028100040B20A494870084690F901002D2801DDB0
:102820002D20487043F23900044948809FED040A86
:1028300010EE100A48600120DFE700007C00002055
:10284000DF8FB44110B5002400BF26E02748015DAA
:1028500004EB840000EBC400254A1044007961F3C6
:10286000060004EB840101EBC40111440871214806
:1028700050F8240004EB840101EBC4011144C1F8B9
:1028800005001D4850F8240004EB840101EBC4014D
:102890001144C1F80900601CC4B2052CD6DBFFF757
:1028A000CDFE00241FE004EB840000EBC4001049BF
:1028B0000844C078552814D104EB840000EBC40010
:1028C0000844D0F8090060B10A4951F8240004EB2B
:1028D000840101EBC401064B1944D1F80920002101
:1028E0009047601CC4B2052CDDDB10BD98000020B1
:1028F0009C04002084000020A00000202DE9FE435D
:1029000004460D4616461F46DDE90A892C4890F814
:10291000E40160BB01212A4880F8E41190ED6B0AC4
:1029200080ED750AD0F8EC0001882548A0F8E01188
:1029300090ED330A80ED730AC06801882048A0F842
:10294000DC1190ED6B0A80ED760AD0F8EC0001887E
:102950001B48A0F8E21190ED330A80ED740AC068BC
:1029600001881748A0F8DE110020BDE8FE83144856
:1029700090F8E401052820D133462A462146114823
:102980008DE88003FFF79AFD21880D48A0F8BA1062
:1029900096ED000A80ED2F0A97ED000A80ED300ACF
:1029A0002988A0F89A1198ED000A80ED670A99ED40
:1029B000000A80ED680A0120D7E70020D5E7000073
:1029C000A80600207408002070B504460025681F82
:1029D000FFF798F8134800681349B0FBF1F013496A
:1029E0000870104800684FF4FA51B0FBF1F010493C
:1029F00008600CB94FF47A740A480068B0FBF4F030
:102A0000C5086D1E4FF0E020006940F002004FF055
:102A1000E021086108464561006940F00100086155
:102A200070BD00000000002000127A006C00002041
:102A30007000002070B50346002400210020002211
:102A400000254FF0E02675690D4E367803FB06F43D
:102A50004FF0E026B16910E04FF0E026B0698842FF
:102A60000BD0884202D20E1A324402E02E1A0E44D3
:102A700032440146A24200D300E0EDE700BF70BD42
:102A80006C00002038B500230024044600BF06E097
:102A900025680095009D0D60241D091D5B1C934257
:102AA000F6D338BD10B504464FF4807040FA04F1F7
:102AB0000148FEF7E4FC10BD0018024000B58BB0E1
:102AC00001210846FEF774FD01211020FEF770FD7C
:102AD00001210846FEF79CFD012208214448FEF72B
:102AE000A9FC01220E214348FEF7A4FC4FF480709C
:102AF000099002208DF8280000208DF829008DF81B
:102B00002A008DF82B0009A93948FEF74BFC4FF439
:102B10008040099009A93748FEF744FC0121084686
:102B2000FEF786FD00210120FEF782FD40F2CF7006
:102B30000790B320ADF818000020ADF81A00ADF8EA
:102B4000200006A92C48FFF735FA6020ADF80400F4
:102B50000120ADF806000020ADF81000ADF8080027
:102B60000820ADF812004001ADF814000020ADF8C7
:102B700016004FF47A70039001A91F48FFF784F9FB
:102B800001A91D48FFF7C8F908211B48FFF7BAF94A
:102B900008211948FFF7FCF901211748FFF768F8E9
:102BA00001211548FFF77FF801211348FFF76FF85F
:102BB00000F026F801212020FEF7FAFC4FF4806097
:102BC000099000208DF828008DF82A0003208DF848
:102BD000290001208DF82B0009A90848FEF7E2FB27
:102BE0004FF480610548FEF74AFC0BB000BD0000C1
:102BF00000000240001002400000014000140240AA
:102C000010B54FF47A710448FFF7CFF94FF47A7199
:102C10000148FFF7CCF910BD0000014010B5044693
:102C200032210B48FDF7F1FB01231A4621460848E3
:102C3000FDF74AFC0648FDF7A3FC00BF022104484B
:102C4000FDF70EFC0028F9D00148FDF705FC10BD8A
:102C50000020014010B52DED028B002008EE900AF7
:102C600000F072F91220FFF7D9FF08EE900AB8EED3
:102C7000680ADFED0C0A20EE200AB0EE408A9FEDD4
:102C80000A0A38EE400ADFED090A80EE201AB3EE98
:102C9000090A31EE000AB0EE408AB0EE480ABDECF7
:102CA000028B10BD3333533A5C8F423F0AD7233B2C
:102CB00010B508B101B103B910BD02F0020414B19E
:102CC00000241C80F8E702F0010404B390ED000A30
:102CD000D1ED000A9FED0F1A01EE600A80ED000AA7
:102CE00090ED010AD1ED010A9FED0A1A01EE600A8A
:102CF00080ED010A90ED020AD1ED020A9FED051A5E
:102D000001EE600A80ED020A1C88641C1C8000BF72
:102D1000D2E7000052499D391CB501214020FEF741
:102D200047FC4FF40050009001208DF80400002073
:102D30008DF8060003208DF8050001208DF80700AE
:102D400069460348FEF72EFB00F004F81CBD0000A6
:102D50000018024010B54FF400510248FEF78FFBF7
:102D600010BD0000001802401CB501217020FEF7C4
:102D70001FFC4FF48040009001208DF804000020DB
:102D80008DF8060003208DF8050001208DF807005E
:102D900069460D48FEF706FB4FF400600090694657
:102DA0000A48FEF7FFFA00F015F800F01DF84FF49E
:102DB000FF70009069460648FEF7F4FA4FF4FF7082
:102DC000FFF770FE1CBD000000140240001002401E
:102DD0000018024010B54FF480410248FEF74FFB47
:102DE00010BD00000014024010B54FF4006102480D
:102DF000FEF745FB10BD000000100240FDF7DCFBB4
:102E000000BFFEE70246501AB0F5805F03DDA0F573
:102E1000F850FF3805E010F5805F02DA41F6FF73E5
:102E2000184400EE100AB8EEC00ADFED020A20EEE8
:102E3000200A7047DB0F493A10B540210148FEF7E0
:102E40001EFB10BD0014024010B540210148FEF7E2
:102E500014FB10BD001402401CB501218020FEF7B8
:102E6000A7FB3C20009001208DF8040000208DF885
:102E7000060003208DF8050001208DF80700694643
:102E80000648FEF78FFA002404E0204600F008F818
:102E9000601CC4B2042CF8DB1CBD0000001C024006
:102EA00010B50446032C00DD10BD0420A04081B203
:102EB0000248FEF7E2FA00BFF6E70000001C0240FD
:102EC00010B50446032C00DD10BD0420A04081B2E3
:102ED0000248FEF7D4FA00BFF6E70000001C0240EB
:102EE0000A490968096809B9012100E0002121B1F6
:102EF0004FF0FF31064A116006E004490968C968CD
:102F0000C868034A4168116070470000280000202B
:102F10005400002010B524220249A1F12400FEF73C
:102F20000BFC10BDEE090020064AA2F8BA0082EDA3
:102F30002F0AC2ED300AA2F89A1182ED671AC2ED8B
:102F4000681A7047A806002000B587B000200190DD
:102F50008DF808008DF809000390059001208DF888
:102F6000180001A90248FDF785FA07B000BD00006E
:102F7000002001401FB501210802FEF749FB012195
:102F80000802FEF755FB00214FF48070FEF750FB5E
:102F90000120FDF7FBFA00200090039002904FF40F
:102FA000803001906846FDF73FFAFFF7CDFF01231F
:102FB0001A4612210348FDF787FA01210148FDF75F
:102FC00027FA1FBD0020014001460A69D1E90130FE
:102FD0009860D1E9010358605068884201D188683F
:102FE0005060002008611068401E10601068704733
:102FF00042684A6093688B60936859609160086189
:1030000003685B1C0360704770B5FDF797F90446D1
:10301000102C16D304F1E02090F8F05315480078F6
:10302000854201DB012000E0002050B900BF5020A4
:1030300080F31188BFF34F8FBFF36F8F00BF00BFC6
:10304000FEE70D48006800F4E0600C49096888421A
:1030500001D8012000E0002050B900BF502080F3CB
:103060001188BFF34F8FBFF36F8F00BF00BFFEE724
:1030700070BD0000640000200CED00E0680000203E
:103080002DE9F04105460F4655B900BF502080F3A9
:103090001188BFF34F8FBFF36F8F00BF00BFFEE7F4
:1030A000FFF7B2FF2C4600BF5021EFF3118081F3F0
:1030B0001188BFF34F8FBFF36F8F00BF064694F8A0
:1030C0005880022084F85800606D401C6065B8F19B
:1030D000010F3BD1A06A08B9012000E0002050B9DF
:1030E00000BF502080F31188BFF34F8FBFF36F8F65
:1030F00000BF00BFFEE718480068A8B9201DFFF711
:1031000063FF94F82C100120884014490968084393
:1031100012490860E16A01EB8101114A02EB81006A
:10312000211DFFF765FF04E004F118010D48FFF7CA
:103130005FFF0D49E06A0968C96A884206D917B17C
:103140000120386002E001200849086000BF86F3D2
:10315000118800BFBDE8F0815C0000203C00002029
:103160005C0100200404002024000020480000200E
:103170001D48006818B101201C49086032E0002099
:103180001A4908601A480068B0FA80F0C0F11F01BF
:1031900001EB8100174A52F8200008B1012000E03D
:1031A000002050B900BF502080F31188BFF34F8F2B
:1031B000BFF36F8F00BF00BFFEE701EB81020D4B35
:1031C00003EB820042685268426000F108024368E3
:1031D000934202D14268526842604268D268064B0C
:1031E0001A6000BF704700005C000020480000200B
:1031F0003C0000205C0100202400002010B500BF2E
:10320000502080F31188BFF34F8FBFF36F8F00BF43
:1032100000F024F818B14FF080500449086000BF56
:10322000002080F3118800BF10BD000004ED00E015
:103230000549096809B9012005E00449096809B987
:10324000022000E000207047400000205C000020C9
:103250000149086870470000380000202DE9F0415E
:103260004FF0000844480068002877D143480068C0
:10327000451C4248056015BB41480068006808B914
:10328000012000E0002050B900BF502080F31188D9
:10329000BFF34F8FBFF36F8F00BF00BFFEE738480B
:1032A000076838480068364908603648076036487D
:1032B0000068401C34490860FFF712FE00BF334825
:1032C000006885423CD300BF2D480068006808B9FB
:1032D000012000E0002020B14FF0FF302B490860B2
:1032E0002DE027480068C068C4686668B54202D20D
:1032F0002648066023E0201DFFF766FEA06A18B18D
:1033000004F11800FFF760FE94F82C1001208840AB
:103310001F49096808431E490860E16A01EB810101
:103320001C4A02EB8100211DFFF762FE1A49E06A88
:103330000968C96A8842C7D34FF00108C4E700BFD3
:1033400015480068C06A00EB8000124951F820005F
:10335000012801D94FF0010805E0FFE70F48006898
:10336000401C0E4908600E48006808B14FF0010883
:103370004046BDE8F08100005C00002038000020DD
:10338000280000202C0000204C00002054000020C9
:103390003C0000205C0100202400002044000020AC
:1033A000480000204FF00000E1EE100A70470000D6
:1033B000D0330008000000205C010000E801000894
:1033C000203400085C0100201C0D000044020008AD
:1033D000118495BA0A680901020304060708090C5A
:1033E000A91001381AAA010120227C142040041BD4
:1033F0002054041A6C041A840436020506060613C7
:10340000F1271B0829041A9504013A5B803F080A3A
:1034100019BF1C091D246920E93809161021000074
:04000005080001AD41
:00000001FF
