:020000040800F2
:10000000B012002045030008111900085318000819
:10001000ED18000881070008BF300008000000004C
:100020000000000000000000000000008D02000839
:100030005915000800000000E1020008052300082F
:1000400069030008690300086903000869030008E0
:1000500069030008690300086903000869030008D0
:1000600069030008690300086903000869030008C0
:1000700069030008690300086903000869030008B0
:1000800069030008690300086903000869030008A0
:100090008507000869030008690300088116000845
:1000A0006903000869030008690300086903000880
:1000B000690300081D24000869030008690300089B
:1000C0006903000869030008690300086903000860
:1000D00069030008252D000869030008690300086A
:1000E0006903000869030008690300086903000840
:1000F0006903000869030008690300086903000830
:10010000690300086903000869030008690300081F
:10011000690300086903000841270008DD2700087B
:1001200069030008690300086903000869030008FF
:1001300069030008690300086903000869030008EF
:10014000C50800086903000869030008690300087E
:100150005D120008690300086903000869030008CC
:1001600069030008690300086903000869030008BF
:100170006903000869030008690300080000000023
:10018000690300086903000869030008690300089F
:10019000690300086903000869030008690300088F
:1001A00000000000000000006903000800F002F8F1
:1001B00000F05CF80AA090E8000C82448344AAF1A5
:1001C0000107DA4501D100F051F8AFF2090EBAE8A3
:1001D0000F0013F0010F18BFFB1A43F0010318477B
:1001E00074850000948500000A444FF0000C10F85C
:1001F000013B13F0070408BF10F8014B1D1108BFA5
:1002000010F8015B641E05D010F8016B641E01F844
:10021000016BF9D113F0080F1EBF10F8014BAD1C94
:100220000C1B09D16D1E58BF01F801CBFAD505E0B2
:1002300014F8016B01F8016B6D1EF9D59142D6D30C
:10024000704700000023002400250026103A28BF34
:1002500078C1FBD8520728BF30C148BF0B60704738
:100260001FB507F0FFFB1FBD10B510BD00F0B0F8C3
:100270001146FFF7F5FF03F0F7FC00F0CEF803B4EA
:10028000FFF7F2FF03BC00F033F900002A4B1968B6
:100290000868B0E8F04F80F30988BFF36F8F4FF024
:1002A000000080F3118870470000000006480068D5
:1002B000006880F3088862B661B6BFF34F8FBFF362
:1002C0006F8F00DF00BF00BF08ED00E0DFF80C001B
:1002D000016841F470010160704700BF88ED00E0E3
:1002E000EFF30980BFF36F8F134B1A681EF0100FE6
:1002F00008BF20ED108A20E9F04F106008B44FF0DD
:10030000500080F31188BFF34F8FBFF36F8F06F05B
:1003100047FB4FF0000080F3118808BC196808689B
:10032000B0E8F04F1EF0100F08BFB0EC108A80F359
:100330000988BFF36F8F704724000020EFF305801A
:10034000704700000C48016841F4700101600B48DF
:1003500080470B480047FEE7FEE7FEE7FEE7FEE7C3
:10036000FEE7FEE7FEE7FEE7FEE700000548064978
:10037000044A064B7047000088ED00E01523000892
:10038000AD010008B00E0020B0120020B00E002019
:1003900070477047704700001FB584B000200A9C6A
:1003A00006AB04AA02A90094AFF3008018B1DDE9FE
:1003B000020108B010BD0348204000F037F80020CB
:1003C0000146F6E70000207C00487047500E0020F0
:1003D0007546FFF7F9FFAE4605006946534620F023
:1003E0000700854618B020B5FFF7C0FFBDE82040E4
:1003F0004FF000064FF000074FF000084FF0000BE1
:1004000021F00701AC46ACE8C009ACE8C009ACE893
:10041000C009ACE8C0098D46704710B50446AFF37B
:1004200000802046BDE81040FFF729BF10B500F05E
:1004300009F8BDE81040AFF30080002801D000F0BB
:1004400057B8704710B5022803D0410103D50DA15C
:1004500012E0002010BD010101D50FA10CE0C10088
:1004600001D511A108E0810001D512A104E04000EE
:1004700001D513A100E0002115A000F03FF80120F4
:1004800010BD0000496E76616C6964204F70657222
:100490006174696F6E00000044697669646520428A
:1004A00079205A65726F00004F766572666C6F77BF
:1004B00000000000556E646572666C6F7700000086
:1004C000496E657861637420526573756C740000C1
:1004D0005349474650453A2041726974686D6574C6
:1004E000696320657863657074696F6E3A200000F7
:1004F00001491820ABBEFEE72600020070B5054694
:100500000C460A2000E06D1C00F011F835B1287887
:100510000028F8D102E0641C00F009F814B120783A
:100520000028F8D1BDE870400A20AFF3008008B57C
:1005300069468DF800000320ABBE08BD7047CA4372
:100540000260704721B1826842F00102826003E0DC
:10055000826822F001028260704700000021084A90
:100560001168084A1140D0E900231A4383681A43EE
:10057000C3681A431143044AC2F8041370470000C9
:1005800004230140E030FCFF002001400146C86C1C
:1005900080B270470246002013680B400BB1012067
:1005A00000E000207047000030B502460020002324
:1005B0005068104C20400D790C6844EA0524204313
:1005C000506090680C4C2040D1E903542C438D6856
:1005D0002C434D7944EA450420439060D06A20F4CE
:1005E00070000C7D641EE4B2234340EA0350D062E5
:1005F00030BD0000FFFEFFFCFDF7FFC0F0B5044674
:100600000D4600200021092D11DDE068A5F10A0644
:1006100006EB4607072606FA07F18843A5F10A0606
:1006200006EB460603FA06F10843E0600CE0206999
:1006300005EB4507072606FA07F1884305EB450653
:1006400003FA06F108432061072A0FDA606B561E91
:1006500006EB86071F2606FA07F18843561E06EBAF
:10066000860605FA06F10843606322E00D2A0FDAD8
:10067000206BD61F06EB86071F2606FA07F1884374
:10068000D61F06EB860605FA06F10843206310E044
:10069000E06AA2F10D0606EB86071F2606FA07F1AF
:1006A0008843A2F10D0606EB860605FA06F108431B
:1006B000E062F0BD816841F08041816070470000D8
:1006C00038B10849096841F40001074AC2F8041327
:1006D00006E00449096821F40001034AC2F8041342
:1006E00070470000042301400020014038B54FF45A
:1006F000407001F04BF94FF47A7002F0DBFF03F029
:1007000055FA06F04FF805F011FF06F08FF95A215F
:1007100047F2305002F0D6FC03F020FA5A214EF690
:10072000602002F01FF8002005231A4601210090E6
:1007300000F040F8002005231A460121009000F047
:10074000D9F841F28731B32001F0E8FE002408E037
:10075000204605F01FFF40F2C52003F009F8601C99
:10076000C4B2042CF4DB05F03FFF02F0E1FE01F01F
:10077000B1F901F0E9F903F051F905F0B9FF38BD1D
:1007800000BFFEE710B50221084800F06DFA58B12D
:100790000221064800F090F9054A0021034800F0C4
:1007A00086FB034800F08EFC10BD00000064004092
:1007B000780900202DE9F0418AB004460D4616461E
:1007C0001F46DDF840800121082001F0F7F90121E2
:1007D000480601F003FA0121480601F00FFA002152
:1007E0004FF0007001F00AFA0320089002208DF803
:1007F000240000208DF8260003208DF8250001201C
:100800008DF8270008A92D4800F0A6FF0922002135
:100810002A4800F0E9FF09220121284800F0E4FFFE
:1008200000208DF81A0001208DF81B0000208DF8A3
:100830001C008DF81D008DF81E008DF81F008DF82E
:1008400016808DF817408DF818608DF81950ADF8A6
:10085000147005A91A4800F0A0FA00208DF80E00C7
:100860008DF80F0001208DF810000020ADF8040075
:10087000ADF80600ADF80800ADF80A00ADF80C00C0
:1008800001208DF8110001A800F06AF9012202216F
:100890000B4800F079FA14208DF8000004208DF840
:1008A000010000208DF8020001208DF80300684649
:1008B00001F030F800200AB0BDE8F081000C0240E1
:1008C0000064004010B50221084800F0CDF958B18D
:1008D0000221064800F0F0F8054A0021034800F024
:1008E000E6FA034800F0EEFB10BD0000006800408F
:1008F0008C0900202DE9F0418AB004460D461646C9
:100900001F46DDF840800121022001F057F9012146
:10091000880601F063F90121880601F06FF90021D2
:100920004FF0806001F06AF94FF4405008900220C7
:100930008DF8240000208DF8260003208DF8250076
:1009400001208DF8270008A92D4800F005FF092295
:100950000C212B4800F048FF09220D21284800F007
:1009600043FF00208DF81A0001208DF81B000020A5
:100970008DF81C008DF81D008DF81E008DF81F00ED
:100980008DF816808DF817408DF818608DF8195085
:10099000ADF8147005A91B4800F0FFF90E208DF882
:1009A0000E0000208DF80F0001208DF810000020AF
:1009B000ADF80400ADF80600ADF80800ADF80A0087
:1009C000ADF80C0001208DF8110001A800F0C8F866
:1009D000012202210B4800F0D7F940208DF80000D9
:1009E00004208DF8010000208DF8020001208DF810
:1009F0000300684600F08EFF00200AB0BDE8F081D9
:100A00000004024000680040F0B585B004460D4681
:100A100016461F464FF40070009000208DF8080025
:100A20008DF8090008208DF80A00200A8DF80B00C7
:100A3000E1B28DF80C10290A8DF80D10E9B28DF88D
:100A40000E10310A8DF80F10F1B28DF81010390A1E
:100A50008DF81110F9B28DF812106946024800F0B5
:100A60009EFA05B0F0BD0000006400402DE9F041A1
:100A700004460D4616461F4640F2FF100C4908601A
:100A800000200872487208208872200AC87208463E
:100A90000473290A41738573310AC1730674390AD4
:100AA000417487740146034800F079FABDE8F0818B
:100AB0006409002000640040B1F5007F3AD00FDCEB
:100AC000202928D006DC01291CD004291DD00829A2
:100AD00040D11DE0402921D0B1F5807F3AD126E0F8
:100AE000B1F5004F31D006DCB1F5806F25D0B1F5FE
:100AF000006F2FD124E0B1F5803F12D0B1F5003F57
:100B000028D111E0154A826025E00822C26022E067
:100B10001022C2601FE0082202611CE01022026164
:100B200019E00822426016E01022426013E004221D
:100B3000426010E0042242600DE0042242600AE0BC
:100B4000002282610422426005E0002282610422C8
:100B5000426000E000BF00BF7047000001010100DB
:100B600010B50021837A012202FA03F13D4A12688E
:100B700042F001023B4B1A603A4A1C3212688A4327
:100B8000384B1C331A60027BCAB9364A0C321268E1
:100B90008A43344B0C331A604288C38842EA0343C9
:100BA000304A4032847A42F834300288838842EAFC
:100BB00003432C4A4032847A02EBC4025360027B26
:100BC000012A19D1274A0C3212680A43254B0C33EB
:100BD0001A604288038842EA0343224A4032847AF8
:100BE00042F83430C288838842EA03431D4A4032C7
:100BF000847A02EBC4025360C27A3AB9194A121DD0
:100C000012688A43174B1B1D1A6006E0154A121D15
:100C100012680A43134B1B1D1A60028932B9114A2C
:100C2000143212688A430F4B14331A600289012A66
:100C300006D10C4A143212680A430A4B14331A6064
:100C4000427B012A06D1074A1C3212680A43054B2F
:100C50001C331A60034A126822F00102014B1A6029
:100C600010BD00000066004070B504460D46002629
:100C700060692840002871D0B5F5807F5CD010DC19
:100C8000082D35D006DC012D20D0022D24D0042DD6
:100C900072D127E0102D31D0202D35D0402D6BD1D1
:100CA00038E0B5F5004F60D009DCB5F5007F49D0DC
:100CB000B5F5806F4CD0B5F5006F5DD14FE0B5F55F
:100CC000803F2DD0B5F5003F56D12FE0A0682D49CB
:100CD00000F0BAFA064651E0E068032100F0B4FAE9
:100CE00006464BE0E068082100F0AEFA064645E013
:100CF000E068102100F0A8FA06463FE020690321D1
:100D000000F0A2FA064639E02069082100F09CFABA
:100D1000064633E02069102100F096FA06462DE0E1
:100D20006068082100F090FA064627E0606810210C
:100D300000F08AFA064621E0A069012100F084FA59
:100D400006461BE0A069022100F07EFA064615E087
:100D5000A069042100F078FA06460FE00FE0A069D0
:100D6000702100F071FA064608E06068042100F086
:100D70006BFA064602E0FFE7002600BF00E000260F
:100D8000304670BD010101001AB143690B43436154
:100D900002E043698B434361704730B5024600204F
:100DA0000023146824F002041460146844F0010461
:100DB000146000E05B1C546804F001041CB94FF699
:100DC000FF74A342F6D1546804F001040CB900206A
:100DD0006CE08C79012C04D1146844F08004146018
:100DE00003E0146824F080041460CC79012C04D151
:100DF000146844F04004146003E0146824F04004D4
:100E000014600C7A012C04D1146844F0200414609E
:100E100003E0146824F0200414604C7A012C04D1FF
:100E2000146844F01004146003E0146824F0100403
:100E300014608C7A012C04D1146844F00804146006
:100E400003E0146824F008041460CC7A012C04D167
:100E5000146844F00404146003E0146824F00404EB
:100E600014608C78A407CD7844EA05640D7944EACF
:100E700005444D7944EA05540D886D1E2C43D46118
:100E8000146824F001041460002300E05B1C546823
:100E900004F001041CB14FF6FF74A342F6D154686C
:100EA00004F001040CB1002000E0012030BD10B5B9
:100EB00000F5D87303EB01131B6803F004031372EE
:100EC000137A53B900F5D87303EB01131B6840F292
:100ED000FF7404EA5353136009E000F5D87303EB81
:100EE00001131B686FF0604404EAD303536000F5FC
:100EF000D87303EB01131B6803F00203537200F570
:100F0000D87303EB01135B6803F00F03937200F5D2
:100F1000D87303EB01135B681B0AD37400F5D87315
:100F200003EB01139B68D37200F5D87303EB011335
:100F30009B681C0A147300F5D87303EB01139B68BC
:100F40001C0C547300F5D87303EB01139B681B0E44
:100F5000937300F5D87303EB0113DB68D37300F5CB
:100F6000D87303EB0113DB681C0A147400F5D87303
:100F700003EB0113DB681C0C547400F5D87303EB0E
:100F80000113DB681B0E937421B9C36843F020037F
:100F9000C36003E0036943F02003036110BD10B593
:100FA00002460020936803F08063B3F1806F00D1A4
:100FB00010E0936803F00063B3F1006F01D10120EA
:100FC00008E0936803F08053B3F1805F01D1022001
:100FD00000E00420042874D002F5C07303EB001372
:100FE0001B6803F0010402F5C07303EB00131C60DF
:100FF0000B7A7BB94B7A0C8843EA445302F5C074F0
:1010000004EB00142468234302F5C07404EB0014BD
:10101000236010E00B7A4C6843EAC4034C7A234304
:1010200002F5C07404EB00142468234302F5C07475
:1010300004EB001423608B7A03F00F038B7202F52C
:10104000C07303EB00135B6823F00F0402F5C07359
:1010500003EB00135C6002F5C07303EB00135B68E5
:101060008C7A234302F5C07404EB001463608B7B1D
:101070001C064B7B44EA03440B7B44EA0323CC7AF3
:10108000234302F5C07404EB0014A3608B7C1C06A0
:101090004B7C44EA03440B7C44EA0323CC7B23438C
:1010A00002F5C07404EB0014E36002F5C07303EBB7
:1010B00000131B6843F0010402F5C07303EB001337
:1010C0001C6010BD10B504462068A0F2012007285E
:1010D0007ED2DFE800F06162636404234200554879
:1010E000008800B253490881207BE17A40EA012060
:1010F00050490880A17B607B41EA002000B24D4945
:101100008880217CE07B41EA002000B24949488088
:10111000607C8871012000F021FA88E04648008850
:1011200000B245490881207BE17A40EA012042492A
:101130000880A17B607B41EA002000B23E498880A4
:10114000217CE07B41EA002000B23B494880607C82
:101150008871022000F002FA69E03848008800B285
:1011600036490881207BE17A40EA01203349088032
:10117000A17B607B41EA002000B230494880217C9D
:10118000E07B41EA002000B22C498880607C8871B5
:10119000032000F0E3F94AE000BF00BF00BF207861
:1011A000401E274908700846007800EB800025495A
:1011B00031F8100000B22249097801EB8101214A7F
:1011C00002EB41010881207BE17A40EA012000E046
:1011D0002CE01B49097801EB810122F81100A17B69
:1011E000607B41EA002000B21549097801EB8101DA
:1011F00002EB41014880217CE07B41EA002000B203
:101200000F49097801EB810102EB41018880607C84
:101210000B49097801EB810102EB41018871084912
:101220000978091DC8B200F099F900E000BF00BFBD
:1012300010BD00001C0900202609002030090020F4
:10124000100100203A0900200246002002EA0103B2
:101250000BB1012000E000207047000010B51049DC
:10126000104800F029F9C8B10D490E4800F022F8E5
:1012700004F0ECFF05F012FC01280FD00A490B48DE
:10128000006805F015FB0848006838B14FF0805041
:1012900007490860BFF34F8FBFF36F8F10BD000089
:1012A0000008002088640240900100201401002002
:1012B00004ED00E00246094B9A4201D2084801E0E1
:1012C0000648103801F000531BB1064B0B40C360B9
:1012D00002E0044B0B408360704700001064024042
:1012E000006002407D0F7D0F21B1026842F00102D3
:1012F000026003E0026822F0010202607047000011
:10130000016821F0010101600021016041608160FC
:10131000C1600161212141614A49884204D13D21D6
:10132000484A103A91608CE046491831884205D10C
:101330004FF47461434A103A916082E04149303180
:10134000884205D14FF474113E4A103A916078E01A
:101350003C494831884205D14FF07461394A103A0E
:1013600091606EE037496031884204D13649354A90
:10137000103AD16065E033497831884204D133496D
:10138000304A103AD1605CE02E499031884204D155
:101390002F492C4A103AD16053E02A49A83188429B
:1013A00005D14FF03D51274A103AD16049E0294913
:1013B000884204D13D21274A083A116041E025497D
:1013C0001831884205D14FF47461224A083A1160FD
:1013D00037E020493031884205D14FF474111D4A5D
:1013E000083A11602DE01B494831884205D14FF081
:1013F0007461184A083A116023E016496031884246
:1014000004D11149134A121F11601AE011497831B1
:10141000884204D10D490F4A121F116011E00D4995
:101420009031884204D10A490A4A121F116008E02B
:101430000849A831884204D14FF03D51054A121F96
:1014400011607047106002403D000020400F0020F6
:1014500000003D201064024021B1026842F4802265
:10146000026003E0026822F480220260704722B129
:10147000036843F40023036003E0036823F40023BC
:10148000036001617047014600200A6802F0010212
:101490000AB1012000E0002070470146486880B290
:1014A0007047014600200A6802F400220AB10120B8
:1014B00000E000207047000030B503460A460020D7
:1014C00000240B4DAB4201D20A4901E00849103912
:1014D00002F000550DB14C6800E00C68064D2C4040
:1014E00004EA02050DB1012000E0002030BD00003B
:1014F00010640240006002407D0F7D0F10B5002295
:101500000268134B1A40CC680B6823434C69234391
:101510008C692343CC6923430C6A23434C6A2343DD
:101520008C6A23434C6B23438C6B23431A43026026
:10153000426922F00702D1E90B3423431A43426186
:101540000B6943604B6883608B68C36010BD00000B
:101550003F801CF0416070477047000010B50446A2
:1015600004EBC400454901EB8000006804EBC401B2
:10157000424A02EB8101486005F0A0FA04EBC40185
:101580003E4A02EB8101086004EBC400114601EB06
:101590008000C07CC0F38010B0B104EBC40001EB4C
:1015A0008000C07C20F0400004EBC40102EB81010C
:1015B000C87404EBC400114601EB8000006804EB22
:1015C000C40102EB8101C86004EBC4002B4901EBAC
:1015D0008000806990B304EBC401284A02EB8101CA
:1015E0008869804758B304EBC400244901EB8000AC
:1015F000C07C20F02000203004EBC4011F4A02EB25
:101600008101C87404EBC400114601EB8000C07C6A
:1016100020F08000803004EBC40102EB8101C8742B
:1016200004EBC400114601EB8000006A28B304EB10
:10163000C40102EB8101086A80471EE00FE0FFE76A
:1016400004EBC4000D4901EB8000C07C20F0800059
:1016500004EBC401094A02EB8101C8740DE004EBFC
:10166000C400064901EB8000C07C20F0800004EB40
:10167000C401024A02EB8101C87410BDA009002018
:1016800010B54FF4807000F011F840B14FF4807045
:1016900000F006F804F0E2FD172000F055FC10BD44
:1016A0000149086070470000143C014001460020D9
:1016B000034A12680A400AB1012000E00020704786
:1016C000143C0140002123498279002A3AD00A467D
:1016D000126803689A430B461A600A1D1268036871
:1016E0009A430B1D1A60027911440A6803681A4371
:1016F0000A60184A0832126803689A43154B083387
:101700001A601A1D126803689A43124B0C331A6050
:101710004279102A0ED11A1F126803681A430D4B22
:1017200008331A601A1D126803681A43094B0C33F8
:101730001A600DE00749427911440A6803681A43A8
:101740000A6005E0027911440A6803689A430A6056
:1017500070470000003C0140F0B50A46002100231C
:10176000002400BF3DE0012505FA01F3156805EAF4
:1017700003049C4234D105684F000326BE40B543A4
:10178000056015794E00B54006683543056015794A
:10179000012D02D01579022D16D185684F00032640
:1017A000BE40B543856055794E00B54086683543E7
:1017B0008560456801268E40B54345604568967949
:1017C0008E40B6B235434560C5684F000326BE4023
:1017D000B543C560D5794E00B540C6683543C56090
:1017E000491C1029BFD3F0BDF0B5002300244D07DC
:1017F000ED0E02FA05F3CE1000F1200555F8265043
:101800004E07F70E0F26BE40B543CF1000F120065D
:1018100046F82750CE1000F1200555F8265045EA2D
:101820000304CE1000F1200545F82640F0BD024625
:10183000002013690B400BB1012000E0002070472D
:1018400041837047018370470AB1018300E04183FF
:10185000704700BFFEE7000070B506460C4615460F
:101860001548007838B3288888B9144890ED000AE4
:10187000134880ED000A114890ED010A104880EDF0
:10188000010A0E4890ED020A0D4880ED020A0D484B
:1018900002782B460C490A4802F02CF9084890EDD2
:1018A000000A84ED000A90ED010A84ED010A90ED32
:1018B000020A84ED020A70BD88010020040D002098
:1018C000100D0020E40C0020440D002091ED000AD2
:1018D000054A82ED000A91ED010A82ED010A91EDBF
:1018E000020A82ED020A7047040D002000BFFEE7E5
:1018F00010B5044600BF0221044800F0E9FB0028AF
:10190000F9D02146014800F0ECFB10BD0030014049
:101910007047000070B5002100230F22C4781CB36B
:10192000174C246804F4E064C4F5E064C4F30721B0
:10193000C1F10404E3B20A4144789C40E1B28478E6
:10194000144021430C07210E0E4C05786155047894
:1019500004F01F050124AC4005786D11AD0005F1C0
:10196000E025C5F8004109E0047804F01F050124D2
:10197000AC40054D0678761145F8264070BD000054
:101980000CED00E000E400E080E100E002490143EA
:10199000024A1160704700000000FA050CED00E0FB
:1019A00010B500F0BFFB4FF480614948FFF74AFFD4
:1019B000C82001F0B5FE4FF480614548FFF740FFB5
:1019C000C82001F0ADFE4FF480614148FFF73AFFB7
:1019D0000821182000F022FB0021AE2004F090FD29
:1019E0000021084604F08CFD0021102004F088FD41
:1019F0000021402004F084FD0021812004F080FDBE
:101A00000021CF2004F07CFD0021A12004F078FD0E
:101A10000021C82004F074FD0021A62004F070FD10
:101A20000021A82004F06CFD00213F2004F068FD97
:101A30000021D32004F064FD0021084604F060FD7D
:101A40000021D52004F05CFD0021802004F058FD29
:101A50000021D92004F054FD0021F12004F050FDB4
:101A60000021DA2004F04CFD0021122004F048FD92
:101A70000021DB2004F044FD0021402004F040FD63
:101A80000021202004F03CFD0021022004F038FD5C
:101A900000218D2004F034FD0021142004F030FDDD
:101AA0000021A42004F02CFD0021A62004F028FD34
:101AB0000021AF2004F024FD0021AF2004F020FD20
:101AC000002004F0D3FB0021084604F075FC10BD93
:101AD0000004024000B585B00121042000F06EF83A
:101AE0000121880300F09AF80820039000208DF867
:101AF00010008DF8130003A91248FFF72DFE0321F3
:101B0000022000F03BFB0820019000208DF8080027
:101B100008208DF8090001208DF80A0001A8FFF7C0
:101B2000D1FD09208DF8000000208DF801008DF80E
:101B3000020001208DF803006846FFF7EBFE05B0B8
:101B400000BD00000008024000B585B0012104205E
:101B500000F034F80121880300F060F802200390BF
:101B600000208DF810008DF8130003A91248FFF72C
:101B7000F3FD0121084600F001FB02200190002046
:101B80008DF8080008208DF8090001208DF80A0062
:101B900001A8FFF797FD07208DF800000A208DF8B7
:101BA000010000208DF8020001208DF80300684636
:101BB000FFF7B0FE05B000BD0004024029B1064A9F
:101BC00012680243044B1A6004E0034A126882431D
:101BD000014B1A60704700003038024029B1064AB4
:101BE00012680243044B1A6004E0034A12688243FD
:101BF000014B1A60704700004038024029B1064A84
:101C000012680243044B1A6004E0034A12688243DC
:101C1000014B1A60704700002038024029B1064A83
:101C200012680243044B1A6004E0034A12688243BC
:101C3000014B1A60704700004438024029B1064A3F
:101C400012680243044B1A6004E0034A126882439C
:101C5000014B1A607047000024380240F0B50021A3
:101C600000220024022500260223324F3F6807F09D
:101C70000C0121B1042905D0082937D105E02E4FE8
:101C8000076036E02D4F076033E02A4F3F1F3F6863
:101C9000C7F38056274F3F1F3F6807F03F036EB1E1
:101CA000264FB7FBF3F7DFF88CC0ACF1040CDCF87F
:101CB00000C0CCF3881C07FB0CF40CE01E4FB7FBF4
:101CC000F3F7DFF870C0ACF1040CDCF800C0CCF323
:101CD000881C07FB0CF4174F3F1F3F68C7F30147F1
:101CE0007F1C7D00B4FBF5F7076002E0124F076030
:101CF00000BF00BF0F4F3F6807F0F0010909104F08
:101D00007A5C0768D74047600A4F3F6807F4E051A4
:101D1000890A0B4F7A5C4768D7408760054F3F6858
:101D200007F46041490B064F7A5C4768D740C760AB
:101D3000F0BD0000083802400024F400001BB7008A
:101D40001400002070B590B004460E4615460121DF
:101D50004A48FFF733FF01211020FFF75FFF012101
:101D60001020FFF76BFF00211020FFF767FF07220D
:101D700011464348FFF738FD80200E9002208DF871
:101D80003C0000208DF83E0003208DF83D0000202F
:101D90008DF83F000EA93A48FFF7DEFC394801F004
:101DA00057F839480A900020ADF82C00ADF82E0005
:101DB0004FF48060ADF830000420ADF83200002010
:101DC000ADF834000AA92F4801F00AF90122402198
:101DD0002C4801F034F810212A4801F01BF80122A8
:101DE00040F22441274801F0D5F80121254801F0AF
:101DF0001AF825208DF83C0004208DF83D000020C5
:101E00008DF83E0001208DF83F000FA8FFF782FDFE
:101E10001E48FFF775FA4FF0006001901948001D49
:101E20000290039400200490059506904FF4806082
:101E300007900020089009904FF480700A904FF4AA
:101E400040300B9000200C900D900E900F9001A947
:101E50000E48FFF753FB002231460C48FFF707FB03
:101E600001210A48FFF7F8FA00210848FFF73CFA79
:101E700001210648FFF738FA10B070BD020040009B
:101E80000004024000100140A086010040640240AE
:101E900010B50021014800F0C6FF10BD0010014040
:101EA00000B101B970470278437842EA0322C2F3D5
:101EB0000A020A804278D210837842EA4312C2F3BF
:101EC0000A024A8082789211C37842EA8302037937
:101ED00042EA8322C2F30A028A80027952104379CD
:101EE00042EAC312C2F30A02CA804279C2F3011263
:101EF0008A72427912119308CB728279C37942EACD
:101F0000032212B28A81027A437A42EA032213B28E
:101F100001F10C02CB81827AC37A42EA032213B226
:101F200001F10C020B82037B8B74437BCB74827BAD
:101F3000C37B42EA03228A82027C437C42EA032278
:101F400012B20A8100BFADE710B50446002118485F
:101F5000FFF7CAF9002116481830FFF7C5F900BF8E
:101F60001348FFF790FA0028FAD100BF1048183044
:101F7000FFF789FA0028F9D10E490D481830FFF70C
:101F800099F90D490A48FFF795F921460848FFF7E6
:101F9000E1FA214606481830FFF7DCFA012104482F
:101FA0001830FFF7A1F901210148FFF79DF910BD95
:101FB00070640240000C00203000002000B585B0A5
:101FC00000F050F801210803FFF728FE0020ADF8CB
:101FD00000004FF48270ADF802000020ADF804005C
:101FE000ADF80600ADF808004FF40070ADF80A0037
:101FF0002820ADF80C000020ADF80E000A20ADF846
:1020000010006946044800F06EF80121024800F013
:102010001DF805B000BD0000003001400A4A1288DA
:102020004FF2C7731A40084B1A801A4612880243AF
:102030001A801A4612880A431A801A46128842F0F9
:1020400040021A80704700000030014021B1028830
:1020500042F04002028004E002884FF6BF731A404B
:10206000028070471CB501210220FFF7A7FD012166
:102070000846FFF7A3FD02208DF8040000208DF82C
:1020800006001820009001208DF8070002208DF82E
:10209000050069460C48FFF75FFB80200090694609
:1020A0000A48FFF759FB052203210748FFF79CFB6D
:1020B000052204210448FFF797FB05220721034866
:1020C000FFF792FB1CBD000000040240000002402C
:1020D0000246002013890B400BB1012000E00020D4
:1020E00070478181704710B50022028802F4415286
:1020F0000B884C8823438C882343CC8823430C894A
:1021000023434C8923438C892343CC8923431A439B
:102110000280838B4FF2FF74234083830B8A0382F8
:1021200010BD00001CB501210220FFF747FD012171
:102130000846FFF743FD00224FF4C0610E48FFF749
:1021400083FB4FF4C060009001208DF80400002054
:102150008DF8060003208DF8050069460648FFF754
:10216000FBFA4FF4C0610448FFF76CFB08213820EC
:10217000FFF754FF1CBD00000004024030B50022F0
:102180008B071C0F0F2303FA04F20B4B8C1053F830
:1021900024309343084C8D1044F8253023468C108E
:1021A00053F824308C07240F00FA04F42343024C24
:1021B0008D1044F8253030BD083801400CB50020A2
:1021C000019000904148006840F480303F49086029
:1021D00000BF3E48006800F4003000900198401CA9
:1021E0000190009818B90198B0F5A04FF1D1374887
:1021F000006800F4003010B10120009001E00020E0
:1022000000900098012860D130484030006840F0CC
:1022100080502E49403108602D48006840F440400D
:102220002B490860294808300068284908310860AF
:102230000846006840F4004008600846006840F422
:10224000A05008602348091F0860081F006840F07C
:102250008070091F086000BF1C48006800F0007013
:102260000028F9D01A48006840F480301849086006
:1022700000BF1748406800F480300028F9D01448A7
:10228000006840F400301249086000BF1048406800
:1022900000F400300028F9D040F205700E490860C3
:1022A0000A480830006820F0030008490831086037
:1022B0000846006840F00200086000BF034808308C
:1022C000006800F00C000828F8D10CBD003802406E
:1022D00000700040062D4008003C0240042808D150
:1022E0004FF0E021096941F004014FF0E022116153
:1022F00007E04FF0E021096921F004014FF0E022EE
:102300001161704710B504F0C9FB012801D004F039
:10231000ABFB10BD10B51548006840F470001349C0
:1023200008601348006840F001001149086000206F
:102330000F49083108600E4800680E4908400C49F2
:1023400008600D48091D0860081F006820F48020FF
:10235000091F0860002006490C310860FFF72EFFB6
:102360004FF0006001498039086010BD88ED00E041
:1023700000380240FFFFF6FE1030002470B58AB02E
:1023800004460E46154601210846FFF727FC0121A9
:102390000846FFF713FC012200211F48FFF724FA2B
:1023A0000120089002208DF8240003208DF82500DC
:1023B00000208DF8260001208DF8270008A9164876
:1023C000FFF7CAF9B0B2ADF814000020ADF816005E
:1023D0000694ADF81C0005A94FF0804000F060FCA9
:1023E00002956020ADF800000120ADF80200022047
:1023F000ADF80C006946400700F05CFB0821C806F8
:1024000000F096FB0121880700F048FA01218807B7
:1024100000F053FA0AB070BD0000024010B501216F
:10242000354800F02DFB002865D034480068401C7A
:10243000324908603248007801280BD12021314808
:10244000FFF7F5F9012805D12F480068401C2E49F7
:1024500008600DE02A480078012809D12021294888
:10246000FFF7E5F920B928480068401E26490860B2
:102470002648007801280BD110212248FFF7D7F910
:10248000012805D122480068401C214908600DE060
:102490001E480078012809D110211A48FFF7C7F912
:1024A00020B91B480068401E194908601948007887
:1024B000012805D118480088401C1749088008E009
:1024C00014480078022804D113480088401E12499D
:1024D00008800121084800F0EDF90F4800885028D5
:1024E00002DB50200C4908800B480088012802DCE0
:1024F00001200949088010BD000400406C00002044
:1025000073000020001002407C00002072000020B8
:1025100080000020770000207A00002030B58BB0CA
:1025200005460C4601210220FFF758FB012102203D
:10253000FFF744FB022205212D48FFF755F9012141
:102540000220FFF75BFB00210220FFF757FB1D2055
:102550008DF8140005208DF8150000208DF8160068
:1025600001208DF8170005A8FFF7D4F9681E09901F
:10257000601E80B2ADF820000020ADF82200ADF85A
:102580002800012211461B4800F08BFA08A91948BF
:1025900000F086FB2020069002208DF81C0003200E
:1025A0008DF81D0000208DF81E0002208DF81F0000
:1025B00006A90F48FFF7D0F86020ADF80000012011
:1025C000ADF802000020ADF80C006946094800F0A3
:1025D000B9FA0821074800F007FB0121054800F07F
:1025E0005DF90121034800F068F90BB030BD00002F
:1025F000000402400004004070B58AB004460E4654
:10260000154601210420FFF7E9FA01210820FFF710
:10261000D5FA02220C211F48FFF7E6F84FF480504C
:10262000089002208DF8240003208DF8250000205A
:102630008DF8260001208DF8270008A91548FFF71E
:102640008BF8B0B2ADF814000020ADF81600069477
:10265000ADF81C0005A9104800F022FB029560208F
:10266000ADF800000120ADF802000220ADF80C002A
:102670006946094800F01EFA0821074800F058FA98
:102680000121054800F00AF90121034800F015F97D
:102690000AB070BD000C02400008004070B58AB05E
:1026A00004460E46154601210820FFF797FA01213E
:1026B0008020FFF783FA02220B211F48FFF794F8CE
:1026C0004FF40060089002208DF8240003208DF85C
:1026D000250000208DF8260001208DF8270008A98C
:1026E0001548FFF739F8B0B2ADF814000020ADF886
:1026F00016000694ADF81C0005A9104800F0D0FAA9
:1027000002956020ADF800000120ADF80200022023
:10271000ADF80C006946094800F014FA0821074892
:1027200000F062FA0121054800F0B8F801210348E1
:1027300000F0C3F80AB070BD001C0240000C00405D
:1027400010B50121064800F09BF938B10121044879
:1027500000F0B0F80021024800F0AFF810BD000012
:10276000001000407FB505460C4601211020FFF700
:1027700035FA01211020FFF741FA00211020FFF760
:102780003DFA154800F0B4F8681E0290601E80B251
:10279000ADF804000020ADF80600ADF80C0001A96A
:1027A0000D4800F07DFA012211460B4800F079F93E
:1027B00036208DF8000004208DF8010000208DF8EF
:1027C000020001208DF803006846FFF7A3F80121FD
:1027D000014800F072F87FBD0010004010B50121E3
:1027E000014800F067F810BD0014004070B58AB0D1
:1027F00004460E46154601210220FFF70FFA01217B
:102800000802FFF7DBF9032205212248FEF7ECFF5F
:102810002020089002208DF8240003208DF8250048
:1028200000208DF8260001208DF8270008A91948FE
:10283000FEF792FFB0B2ADF814000020ADF816001C
:102840000694ADF81C0005A9134800F029FA602091
:10285000ADF800000120ADF802000220ADF80C0038
:102860000020ADF81000029569460B4800F022F9EF
:102870000821094800F05CF90121074800F00EF832
:102880000121054800F019F80121034800F021F862
:102890000AB070BD002002400004014021B102884E
:1028A00042F08002028004E002884FF67F731A40F3
:1028B00002807047CA430282704721B1028842F009
:1028C0000102028004E002884FF6FE731A40028083
:1028D000704731B1B0F8442042F40042A0F84420DF
:1028E00005E0B0F84420C2F30E02A0F8442070477F
:1028F00010B504465548844208D101210846FFF727
:102900009DF900210120FFF799F99DE0B4F1804F76
:1029100008D101210846FFF771F900210120FFF7D6
:102920006DF991E04A48844208D101210220FFF765
:1029300065F900210220FFF761F985E045488442EE
:1029400008D101210420FFF759F900210420FFF7E5
:1029500055F979E04048844208D101210820FFF769
:102960004DF900210820FFF749F96DE03B4884420A
:1029700008D101211020FFF741F900211020FFF7B5
:102980003DF961E03648844208D101212020FFF75B
:1029900035F900212020FFF731F955E03148844214
:1029A00008D101210220FFF749F900210220FFF799
:1029B00045F949E02C48844209D101210804FFF778
:1029C0003DF900214FF48030FFF738F93CE027480B
:1029D000844209D101214804FFF730F900214FF466
:1029E0000030FFF72BF92FE02148844209D1012163
:1029F0008804FFF723F900214FF48020FFF71EF928
:102A000022E01C48844208D101214020FFF7F6F85B
:102A100000214020FFF7F2F816E01748844208D161
:102A200001218020FFF7EAF800218020FFF7E6F877
:102A30000AE01248844207D101218015FFF7DEF831
:102A40000021A015FFF7DAF810BD000000000140DA
:102A50000004004000080040000C0040001000404E
:102A600000140040000401400040014000440140C7
:102A70000048014000180040001C004000200040B9
:102A800030B50246002000230024158A05EA010320
:102A9000958905EA010413B10CB1012000E0002082
:102AA00030BD1AB183890B43838102E083898B4354
:102AB0008381704770B5002400220023058C4FF6F7
:102AC000FE7635400584028C8388048B4FF68F7523
:102AD0002C40B51E2C400D882C43751E2A408D8934
:102AE0002A434D882A43104DA84202D00F4DA842D8
:102AF00013D14FF6F7752A40CD892A434FF6FB755F
:102B00002A408D882A434FF6FF652B404FF6FF552C
:102B10002B400D8A2B434D8A2B43838004838D6881
:102B20004563028470BD00000000014000040140C4
:102B30000A460021018B4FF6F773194011430183B8
:102B40007047000070B5002400220023058C4FF66A
:102B5000EF7635400584028C8388048B48F6FF7538
:102B60002C404FF6FF452C400D884FF6FF7606EAC5
:102B700005252C434FF6DF752A408D8906EA051599
:102B80002A434D8806EA05152A43154DA84202D06E
:102B9000144DA8421DD14FF67F752A40CD894FF6BE
:102BA000FF7606EA05152A434FF6BF752A408D8841
:102BB00006EA05152A434FF6FF352B404FF2FF7505
:102BC0002B400D8A06EA85052B434D8A06EA8505CA
:102BD0002B43838004838D688563028470BD00006D
:102BE00000000140000401400A460021018B4FF221
:102BF000FF7319404FF6FF7303EA02231943018361
:102C00007047000070B5002200230024058C4EF6AA
:102C1000FF7635400584038C8488828B48F6FF75E7
:102C20002A404FF6FF452A400D884FF6FF7606EA08
:102C300005252A434DF6FF752B408D8906EA05359B
:102C40002B434D8806EA05352B430A4DA84202D096
:102C5000094DA84208D14BF6FF752C400D8A4FF65E
:102C6000FF7606EA85152C43848082838D6805648F
:102C7000038470BD00000140000401400A460021A9
:102C8000818B4FF2FF7319404FF6FF7303EA022363
:102C900019438183704741637047016470470000A6
:102CA00000220288184B98420ED0184B98420BD045
:102CB000B0F1804F08D0164B984205D0154B984282
:102CC00002D0154B984204D14FF68F731A404B88AF
:102CD0001A43124B984207D0114B984204D04FF63A
:102CE000FF431A400B891A4302804B68C3620B886A
:102CF0000385054B984202D0044B984201D18B7A50
:102D000003860123838270470000014000040140D4
:102D10000004004000080040000C0040001000408B
:102D20000014004010B540F22551344800F008F975
:102D300018B1324800F0BEF95FE040F224412F485C
:102D400000F0FEF8002858D02C4800F0B3F92C48C9
:102D5000FEF7A7FB40BB00212948FEF7C5FA28482B
:102D6000FEF79BFBC0F1240026490880242124485B
:102D7000FEF7F0FB2248006840F40020204908607C
:102D800021491F48FEF796FA01211D48FEF7ACFACB
:102D90001C480088122830D11C491D48FFF780F8D4
:102DA0000020FEF7DBFB28E000211548FEF79CFA27
:102DB0001348FEF772FBC0F1240012490880242159
:102DC0000F48FEF7C7FB0E48006820F400200C49AE
:102DD00008600D490A48FEF76DFA01210848FEF720
:102DE00083FA08480088122807D108490848243087
:102DF000FFF756F80020FEF7B1FB10BD00100140B0
:102E0000406402409401002000003010F00D0020CA
:102E1000060E002001F40072B2F5007F00D100BF61
:102E2000CA430280704721B1828942F400528281F4
:102E300004E082894DF6FF731A40828170471AB10F
:102E4000838A0B43838202E0838A8B4383827047A9
:102E500010B504463248844208D101211020FEF703
:102E6000EDFE00211020FEF7E9FE57E02D488442D8
:102E700009D101214804FEF7C1FE00214FF40030C2
:102E8000FEF7BCFE4AE02848844209D101218804AB
:102E9000FEF7B4FE00214FF48020FEF7AFFE3DE0C8
:102EA0002248844209D10121C804FEF7A7FE00216F
:102EB0004FF40020FEF7A2FE30E01D48844209D105
:102EC00001210805FEF79AFE00214FF48010FEF75D
:102ED00095FE23E01748844208D101212020FEF707
:102EE000ADFE00212020FEF7A9FE17E01248844223
:102EF00009D101218807FEF781FE00214FF08040B3
:102F0000FEF77CFE0AE00D48844207D1012140050E
:102F1000FEF774FE00216005FEF770FE10BD000094
:102F2000001001400044004000480040004C0040B8
:102F3000005000400014014000780040007C004038
:102F400070B50246002400230025002040F66A16D2
:102F5000B14200D100BFC1F3421501F01F030126A9
:102F600006FA03F3012D02D19689334006E0022DC3
:102F700002D1168A334001E0968A33400C120126B2
:102F800006FA04F41688344013B10CB1012000E0B5
:102F9000002070BDF0B50346002400260025002067
:102FA00040F66A17B94200D100BF1846C1F3421477
:102FB00001F01F06012707FA06F5012C01D10C309C
:102FC00004E0022C01D1103000E014301AB107687F
:102FD0002F43076002E00768AF430760F0BD0000C1
:102FE0002DE9FF4705460E460024A14600BFA04636
:102FF000B08900B100BF2C8A24F44054F088044307
:103000002C82AC8941F20C608443B088318908433A
:10301000718908430443AC81AC8A24F44074B089BC
:103020000443AC826846FEF719FE2048854202D070
:103030001F48854202D1DDF80C9001E0DDF80890D0
:10304000A88900F4004040B109EBC90000EB091069
:1030500031684900B0FBF1F707E009EBC90000EB6C
:10306000091031688900B0FBF1F76420B7FBF0F07C
:1030700004012009642101FB1078A88900F40040B4
:1030800040B1322000EBC800B0FBF1F000F00700C7
:10309000044308E0322000EB08106421B0FBF1F09B
:1030A00000F00F0004432C81BDE8FF8700100140B1
:1030B0000014014001468888C0F30800704700BF33
:1030C000FEE7000030B58BB005460C4601214020DC
:1030D000FEF784FD01218020FEF770FD01214020D4
:1030E000FEF78CFD00214020FEF788FD0922062115
:1030F0002048FEF779FB4020099002208DF8280037
:1031000003208DF8290000208DF82A0002208DF878
:103110002B0009A91748FEF71FFB6020ADF804003B
:103120000120ADF806000020ADF8100001A91248FA
:10313000FFF7C0FC08211048FFF7FAFC01210E48F8
:10314000FFF7ACFB681E0790601E80B2ADF8180058
:103150000020ADF81A00ADF8200006A90648FFF7D8
:103160009FFD01210448FFF7A8FB00F007F80BB012
:1031700030BD0000001C02400018004010B50021C6
:103180000148FFF788FD10BD0018004070B50446E7
:103190000D4604480480294602482838FFF77BFD85
:1031A00070BD0000281800402DE9F05F05468846F4
:1031B00091469A46DDF828B07DB1B8F1000F0CD0E9
:1031C000B9F1000F09D0BAF1000F06D0BBF1000F22
:1031D00003D00B9808B10C9808B9BDE8F09F002601
:1031E00000270024288A698A401A04B2002C03DAD6
:1031F00041F6FF70204404B2204604EBD0712A8AC5
:10320000A2EB61010CB2B4F5005F04DBA4F5F85049
:10321000FF3804B205E0002C03DA41F6FF702044C9
:1032200004B2A8F80040B8F80010288A02F0F4FFB1
:103230008AED000AB8F80010688A02F0EDFF8BED05
:10324000000A95ED020ADFED370A80EE201ABDEE86
:10325000C10A10EE100A04B2A88A001B06B295ED4E
:10326000030ADFED300A80EE201ABDEEC10A10EE2F
:10327000100A04B2E88A001B07B2B6F5005F04DB4F
:10328000A6F5F850FF3806B205E0002E03DA41F645
:10329000FF70304406B2B7F5005F04DBA7F5F850C5
:1032A000FF3807B205E0002F03DA41F6FF7038441B
:1032B00007B2F01B04B2B4F5805F04DDA4F5F8504A
:1032C000FF3804B206E014F5805F03DA41F6FF70C0
:1032D000204404B2204604EBD071A6EB61010CB28D
:1032E000B4F5005F04DBA4F5F850FF3804B205E044
:1032F000002C03DA41F6FF70204404B2A9F8004024
:10330000B9F80010A88A02F087FF0B9880ED000A38
:10331000B9F80010E88A02F07FFF0C9880ED000AEF
:1033200000BF5AE7DB0F493AF8B50024002500BF7B
:1033300069E0364968180122694600F041FA9DF8B3
:10334000000004EB840101EBC401314A50549DF8A4
:10335000010004EB840101EBC401114448709DF8A5
:10336000020004EB840101EBC401114488709DF854
:10337000030004EB840101EBC4011144C870281D53
:1033800085B204EB840303EBC403164633441B7974
:1033900003F07F0204EB840303EBC4033344D3F84C
:1033A00005101A4BE81800F00BFA04EB840000EB50
:1033B000C40031460844007900F07F0005EB80002E
:1033C00085B204EB840000EBC4000844C0785528A3
:1033D00017D004EB840000EBC4000844D0F80900C7
:1033E00078B104EB840000EBC4000844007920F0BD
:1033F0008000803004EB840101EBC40132461144AB
:103400000871601CC4B2052C93DBF8BD00001E08D7
:10341000D80800207CB506460D463446ADB994ED7B
:10342000042AF0EE421A94ED032AB0EE421A94ED0B
:10343000022AF0EE420A94ED012AB0EE420A6188B7
:10344000208803F089F900207CBD012D16D104F1FC
:103450001000011F0B1F221DCDE90010A11C2046EA
:1034600000F0C2F818B1FFF789FE0120ECE744F63E
:1034700020611F20FFF78AFE0020E5E70020E3E738
:1034800070B506460C46354634B9294605F10C00A0
:10349000FEF71CFA002070BD012C1BD10E4A2946F4
:1034A00005F10C00FEF7D8F90B48008844F62061BE
:1034B000884206DD002008490880FFF75FFE0120F2
:1034C000E9E7FEF7E5FC42F210715F20FFF75EFED0
:1034D0000020E0E70020DEE70E01002070B5054681
:1034E0000C460CB9012070BD00200F49087000F097
:1034F00067FABDEEC00A10EE100A0A3040B20A495F
:103500004870084690F901002D2801DD2D204870F3
:1035100043F23900044948809FED040A10EE100A76
:1035200048600120DFE70000C4000020DF8FB441C5
:1035300010B5002400BF26E02748015D04EB84009D
:1035400000EBC400254A1044007961F3060004EB47
:10355000840101EBC40111440871214850F8240092
:1035600004EB840101EBC4011144C1F805001D48BE
:1035700050F8240004EB840101EBC4011144C1F8AC
:103580000900601CC4B2052CD6DBFFF7CDFE002479
:103590001FE004EB840000EBC40010490844C0782D
:1035A000552814D104EB840000EBC4000844D0F883
:1035B000090060B10A4951F8240004EB840101EBD1
:1035C000C401064B1944D1F8092000219047601C22
:1035D000C4B2052CDDDB10BDE0000020D8080020BF
:1035E000CC000020E80000202DE9FE4304460D46F3
:1035F00016461F46DDE90A892C4890F8E40160BBB5
:1036000001212A4880F8E41190ED6B0A80ED750ADB
:10361000D0F8EC0001882548A0F8E01190ED330ABD
:1036200080ED730AC06801882048A0F8DC1190ED95
:103630006B0A80ED760AD0F8EC0001881B48A0F8F0
:10364000E21190ED330A80ED740AC06801881748D2
:10365000A0F8DE110020BDE8FE83144890F8E401D4
:10366000052820D133462A46214611488DE880039B
:10367000FFF79AFD21880D48A0F8BA1096ED000AD0
:1036800080ED2F0A97ED000A80ED300A2988A0F816
:103690009A1198ED000A80ED670A99ED000A80ED15
:1036A000680A0120D7E70020D5E70000E40A0020DF
:1036B000B00C002070B504460025681FFEF70EFE12
:1036C000134800681349B0FBF1F013490870104823
:1036D00000684FF4FA51B0FBF1F0104908600CB9E2
:1036E0004FF47A740A480068B0FBF4F0C5086D1E08
:1036F0004FF0E020006940F002004FF0E021086147
:1037000008464561006940F00100086170BD000095
:103710000000002000127A00B4000020B800002051
:1037200070B50346002400210020002200254FF040
:10373000E02675690D4E366803FB06F44FF0E0266F
:10374000B16910E04FF0E026B06988420BD08842A2
:1037500002D20E1A324402E02E1A0E4432440146BE
:10376000A24200D300E0EDE700BF70BDB80000202A
:1037700070B50346002400210020002200254FF0F0
:10378000E02675690D4E367803FB06F44FF0E0260F
:10379000B16910E04FF0E026B06988420BD0884252
:1037A00002D20E1A324402E02E1A0E44324401466E
:1037B000A24200D300E0EDE700BF70BDB4000020DE
:1037C00038B500230024044600BF06E025680095B4
:1037D000009D0D60241D091D5B1C9342F6D338BD6E
:1037E00010B504464FF4807040FA04F10148FEF72A
:1037F00029F810BD0018024070B58AB006460C4684
:10380000154601210846FEF7D9F901211020FEF7DF
:10381000D5F901210846FEF701FA012208214148A5
:10382000FDF7E2FF01220E213F48FDF7DDFF4FF4D7
:103830008070089002208DF8240003208DF8250068
:1038400000208DF826008DF8270008A93548FDF7DF
:1038500083FF4FF48040089008A93348FDF77CFFB0
:1038600001210846FEF7EAF900210120FEF7E6F9FA
:103870000696A0B2ADF814000020ADF81600ADF821
:103880001C0005A92948FFF70BFA6020ADF80000DD
:103890000120ADF802000020ADF80C00ADF80400E6
:1038A0000820ADF80E004001ADF810000020ADF882
:1038B0001200029569461D48FFF7FCF869461B484F
:1038C000FFF7A0F908211948FFF732F90821174836
:1038D000FFF7D4F901211548FEF7E0FF0121134855
:1038E000FEF7F7FF01211148FEF7E7FF00F022F88D
:1038F00001212020FEF762F94FF48060089001203A
:103900008DF8240000208DF8260003208DF8250076
:1039100001208DF8270008A90548FDF71DFF0AB012
:1039200070BD000000000240001002400000014095
:103930000014024010B54FF47A710448FFF7ABF958
:103940004FF47A710148FFF7A8F910BD000001405B
:1039500010B5044632210B48FCF7F1FD01231A464D
:1039600021460848FCF74AFE0648FCF7A3FE00BFC4
:1039700002210448FCF70EFE0028F9D00148FCF7AC
:1039800005FE10BD00200140014601F0030000EBE0
:103990008000024A02EB4000704700003A09002014
:1039A0000048704726090020004870473009002071
:1039B000004870471C09002000487047F00D0020A7
:1039C00010B52DED028B002008EE900A02F0D4FE17
:1039D0001220FFF7BDFF08EE900AB8EE680ADFED8F
:1039E0000C0A20EE200AB0EE408A9FED0A0A38EE5B
:1039F000400ADFED090A80EE201AB3EE090A31EE23
:103A0000000AB0EE408AB0EE480ABDEC028B10BD51
:103A10003333533A5C8F423F0AD7233B1CB5012115
:103A20002020FEF7CBF80120009000208DF8040044
:103A300003208DF8050001208DF807006946024833
:103A4000FDF78AFE1CBD00000010024010B50220E8
:103A50000F4908700F48008801280BDDB4220421AB
:103A60004FF4AF70FEF78AFC40210B48FDF7EAFEE9
:103A7000002010BDB42209494FF4AF70FEF77EFC60
:103A80000120044908800020014908700120F0E766
:103A9000770000207A00002000100240A08601007C
:103AA00010B501200F4908700F48008841280BDA33
:103AB000B42204214FF4AF70FEF760FC40210B48A4
:103AC000FDF7BEFE002010BDB42209494FF4AF70CF
:103AD000FEF754FC5020044908800020014908707A
:103AE0000120F0E7770000207A000020001002405B
:103AF000A086010010B508B101B103B910BD02F0F4
:103B0000020414B100241C80F8E702F0010404B39D
:103B100090ED000AD1ED000A9FED0F1A01EE600A48
:103B200080ED000A90ED010AD1ED010A9FED0A1A1D
:103B300001EE600A80ED010A90ED020AD1ED020A61
:103B40009FED051A01EE600A80ED020A1C88641CD4
:103B50001C8000BFD2E7000052499D391CB50121ED
:103B60004020FEF72BF84FF40050009001208DF814
:103B7000040000208DF8060003208DF805000120C8
:103B80008DF8070069460348FDF7E6FD00F004F8EC
:103B90001CBD00000018024010B54FF4005102484F
:103BA000FDF750FE10BD0000001802401CB50121B9
:103BB0007020FEF703F84FF48040009001208DF84C
:103BC000040000208DF8060003208DF80500012078
:103BD0008DF8070069460D48FDF7BEFD4FF4006003
:103BE000009069460A48FDF7B7FD00F015F800F0AF
:103BF00027F84FF4FF70009069460648FDF7ACFDCA
:103C00004FF4FF70FFF7ECFD1CBD000000140240F4
:103C1000001002400018024010B54FF480410248E5
:103C2000FDF710FE10BD00000014024010B54FF467
:103C300080410248FDF704FE10BD00000014024060
:103C400010B54FF400610248FDF7FCFD10BD000007
:103C50000010024010B54FF400610248FDF7F0FD7E
:103C600010BD0000001002409EB0FCF73FFDC820D0
:103C7000FFF756FDFEF756FAFEF7A0F9FDF790FEA6
:103C8000002002F0F3FAFFF78FFEFE4908600120E2
:103C9000FFF77AFEFC4908600220FFF775FEFB493A
:103CA00008600320FFF770FEF94908600420FFF761
:103CB0006BFEF8490860FFF77BFEF7490860FFF7E5
:103CC0006FFEF64908600320FFF75EFEF4490860C6
:103CD0000420FFF759FEF3490860FFF76DFEF24933
:103CE0000860002019901890179016901590149065
:103CF00013901290119010900F90B422EB494FF452
:103D0000FA70FEF73BFBB322E84940F2F310FEF7EE
:103D1000C5FCB322E54940F2F310FEF76DFCB42276
:103D20000A214FF4AF70FFF767FD00200D900C9053
:103D300002F06CBAFFF740FEDB4908600121DC4865
:103D4000FDF775FD0E900E9838B10220FFF7E8FCE4
:103D50000121D748FDF76BFD0E90D3480068B0F9FC
:103D60000000A0F580600B90CF480068B0F9020019
:103D7000A0F580600A90CC480068B0F90400A0F576
:103D800080600990C8480068B0F90600A0F580601E
:103D9000089000BF02F094FA042001230090C54867
:103DA00002781946184602F069FB042001230090AE
:103DB000C14802780721184602F060FB0420012365
:103DC0000090BE4802781946022002F057FB0420FA
:103DD00001230090092103200D9A02F04FFB0420DB
:103DE0000123009009210C9A02F048FB02F0C8FA66
:103DF000AD480068807A01287DD1AB480068C07A60
:103E00000128F9D10121AE480160AE480160FFF7F9
:103E1000B5F90021AC4801700020AC4908700021C0
:103E2000AB480170A34801700020A4490870A24962
:103E30000870B4229D494FF4FA70FEF79FFAB4223D
:103E40009A494FF4FA70FEF729FCB42297494FF4CF
:103E5000FA70FEF7D1FB0B9858B90A9848B909983F
:103E600038B9089828B900231A4619461846FCF7AD
:103E7000CBFD0B9810B90A9800287DD00B9803F061
:103E8000CBF89FED940B53EC102BCDE900019DED89
:103E9000000B51EC100B03F013F9CDE904010A9863
:103EA00003F0BAF8CDE902019DED040B53EC102BA1
:103EB0009DED020B51EC100B03F0D2FA9FED870B36
:103EC00053EC102BCDE906019DED060B51EC100BC8
:103ED00003F095FA30D20B9803F09EF89FED7D0B1E
:103EE00053EC102BCDE900019DED000B51EC100BB4
:103EF00003F0E6F800E0C4E2CDE904010A9803F01B
:103F00008BF8CDE902019DED040B53EC102B9DEDD8
:103F1000020B51EC100B02F04DFF9FED700B53ECB8
:103F2000102BCDE906019DED060B51EC100B03F0B3
:103F300066FA01D2012400E000240B9803F06CF82B
:103F40009FED640B53EC102BCDE900019DED000BB0
:103F500051EC100B03F0B4F8CDE904010A9803F01A
:103F60005BF8CDE902019DED040B53EC102B9DEDA8
:103F7000020B51EC100B00E003E203F071FA9FED2D
:103F8000570B53EC102BCDE906019DED060B51ECC0
:103F9000100B03F059F82ED20B9803F03DF89FED6B
:103FA0004D0B53EC102BCDE900019DED000B51ECB6
:103FB000100B03F085F8CDE904010A9803F02CF802
:103FC000CDE902019DED040B53EC102B9DED020B8E
:103FD00051EC100B02F0EEFE9FED400B53EC102B5A
:103FE000CDE906019DED060B51EC100B03F02CF80A
:103FF00001D2012000E000200443002C72D00A9876
:10400000C0EB0010199020480068B0F9020040424F
:1040100014901E480068B0F90200404213901C48FA
:104020000068B0F9020012901A480068B0F9020066
:10403000119014991998401A189013991998401AC8
:10404000179012991998401A169011991998401AB8
:104050001590159800EB40010A9801EB4000149070
:10406000189800EB40010A984042C1EB40001390C1
:10407000179800EB40010A984042C1EB40001290B3
:10408000169830E08C000020900000209400002062
:10409000980000209C000020A0000020A400002028
:1040A000A8000020AC000020B0000020A086010085
:1040B00000140240750000207800002076000020E7
:1040C0007C00002080000020700000207100002093
:1040D00074000020333333333333FB3F00000000E0
:1040E0000000000011E000EB400102220A9802FBF0
:1040F00000101190119803B2129802B2139801B2F5
:10410000149800B2FCF780FC3BE10A9802F084FFAF
:104110001FED100B53EC102BCDE900019DED000BB2
:1041200051EC100B02F0CCFFCDE904010B9802F02A
:1041300073FFCDE902019DED040B53EC102B9DEDB7
:10414000020B51EC100B03F08BF91FED1C0B53EC21
:10415000102BCDE906019DED060B51EC100B03F081
:104160004EF92ED20A9802F057FF1FED260B53ECA2
:10417000102BCDE900019DED000B51EC100B02F06E
:104180009FFFCDE904010B9802F046FFCDE9020143
:104190009DED040B53EC102B9DED020B51EC100B1D
:1041A00002F008FE1FED330B53EC102BCDE9060196
:1041B0009DED060B51EC100B03F021F901D2012407
:1041C00000E000240A9802F027FF1FED3E0B53EC9D
:1041D000102BCDE900019DED000B51EC100B02F00E
:1041E0006FFFCDE904010B9802F016FFCDE9020143
:1041F0009DED040B53EC102B9DED020B51EC100BBD
:1042000003F02EF91FED4B0B53EC102BCDE90601FB
:104210009DED060B51EC100B02F016FF2ED20A9802
:1042200002F0FAFE1FED550B53EC102BCDE9000107
:104230009DED000B51EC100B02F042FFCDE90401A3
:104240000B9802F0E9FECDE902019DED040B53EC61
:10425000102B9DED020B51EC100B02F0ABFD1FED8E
:10426000610B53EC102BCDE906019DED060B51ECD3
:10427000100B02F0E9FE01D2012000E0002004430F
:10428000ECB30B98C0EB00101990FE480068B0F931
:1042900002001490FC480068B0F9020040421390FC
:1042A000FA480068B0F9020040421290F8480068ED
:1042B000B0F90200119014991998401A18901399A6
:1042C0001998401A179012991998401A1690119936
:1042D0001998401A1590159800EB40010B9801EBC6
:1042E00040001490189800EB40010B9801EB40003F
:1042F0001390179800EB40010B98404200E015E046
:10430000C1EB400012900B9840004142169800EB20
:104310004000081A1190119803B2129802B2139833
:1043200001B2149800B2FCF76FFB2AE0DDE90A1035
:104330004843002810DA0B984042C0EBC00000B29E
:1043400007900B98C0EBC00000B2069064220146B3
:104350001046079BFCF758FBDDE90A10484300288C
:104360000FDB0B984042C0EBC00000B207900B98E7
:10437000C0EBC00000B2642306901946079AFCF710
:1043800043FB0998F0B3099800EB800040001990B6
:10439000BC480068B0F902001490BB480068B0F94E
:1043A00002001390B9480068B0F902001290B848B2
:1043B0000068B0F90200119014991998401A1890E9
:1043C00013991998401A179012991998401A169033
:1043D00011991998401A1590159800EB4001099809
:1043E00001EB40001490189800EB4001099801EB94
:1043F00040001390179800EB4001099801EB400032
:10440000129000E011E0169800EB4001022209989A
:1044100002FB00101190119803B2129802B2139887
:1044200001B2149800B2FCF7EFFA089810F1280FC7
:104430000CDAB4224FF496714FF4FA70FEF7D6F905
:104440004FF480619348FDF7FDF90EE008982828A5
:104450000BDDB4224FF496714FF4FA70FEF7C6F9F3
:104460004FF480618B48FDF7EBF90898002841F084
:10447000CC86B42288494FF4FA70FEF7B7F901F000
:10448000C4BE86480068807A012875D183480068D8
:10449000C07A0328F9D10120814908608149086068
:1044A000FEF76CFE00208049087080490870804942
:1044B0000870804908708049087080490870764803
:1044C0001A901B901C900B9870B90A9860B90998C3
:1044D00050B9089840B900231A4619461846FCF707
:1044E000C5FA002010900F900A98962814DB00BFA0
:1044F00000BF0A984042C0EB0010400010900A989C
:104500004042C0EB001040000F9003201C9010218F
:104510006B48FDF795F90EE060480068B0F90200BD
:10452000A0F5806010F1960F05DC03201C9010218F
:104530006348FDF787F900231A460F9801B21098D7
:1045400000B2FCF793FA55480068B0F90000A0F5F6
:104550008060962811DD51480068B0F90000A0F590
:1045600080601E2190FBF1F0C0F119001B9020210A
:104570005348FDF765F918E0DCE048480068B0F9F9
:104580000000A0F5806010F1960F0EDC4348006833
:10459000B0F90000A0F580601E2190FBF1F0193009
:1045A0001B9020214648FDF74DF93C480068B0F9C2
:1045B0000400A0F58060962806DD07201A904021AF
:1045C0003F48FDF73FF90EE034480068B0F90400B9
:1045D000A0F5806010F1960F05DC40213848FDF70A
:1045E0002FF907201A902D480068B0F90400A0F5B3
:1045F00080603449884222DC28480068B0F9000015
:10460000A0F5806088421ADC24480068B0F90200F6
:10461000A0F58060884212DCB4221F494FF4FA7082
:10462000FDF7ACFEB4221C494FF4FA70FEF736F8E1
:10463000B42219494FF4FA70FDF7DEFF4FE0202154
:104640002148FDF7F4F830B910211D48FDF7EFF8C7
:1046500008B911481C9001211B48FDF7E8F830B952
:1046600020211748FDF7E3F808B90B481B90B42246
:104670004FF4AF701A99FDF781FEB4224FF4AF707A
:104680001B9923E090000020940000209800002057
:104690009C00002000140240A0860100B000002011
:1046A0007C000020800000207000002071000020AD
:1046B00074000020750000207600002078000020A3
:1046C0000010024001FCFFFF00080240FDF7E6FF7A
:1046D0004FF4A5724FF4D7701C99FDF78DFF089821
:1046E00010F1280F0CDAB4224FF496714FF4FA70DF
:1046F000FEF77CF84FF48061FD48FDF7A3F80EE06B
:10470000089828280BDDB4224FF496714FF4FA7004
:10471000FEF76CF84FF48061F548FDF791F80898C2
:10472000002841F07285B422F2494FF4FA70FEF786
:104730005DF8A4E6F0480068807A01287DD1EE4853
:104740000068C07A0228F9D11021EC48FDF77AF808
:104750000120EB490860EB490860FEF70FFD0020DF
:10476000E9490870E9490870E9490870E9490870A1
:10477000E9490870E94908701021E948FDF760F837
:104780002021E748FDF75CF8B422DA494FF4FA70CB
:10479000FDF7F4FDB422D7494FF4FA70FDF77EFF20
:1047A0000B9858B90A9848B9099838B9089828B99F
:1047B00000231A4619461846FCF726F92021D94845
:1047C000FDF735F838B91021D548FDF730F810B9A4
:1047D000C8481C9001E003201C904FF4A5724FF4D0
:1047E000FA701C99FDF708FF0121CE48FDF71FF86C
:1047F00038B92021CA48FDF71AF810B9BD481B90F6
:1048000001E005201B904FF4A5724FF4FA701B993C
:10481000FDF744FF1021C248FDF712F80B9810B9BC
:104820000A9800287DD00B9802F0F6FB9FEDBE0B96
:1048300053EC102BCDE9000100E0CFE29DED000B21
:1048400051EC100B02F03CFCCDE904010A9802F097
:10485000E3FBCDE902019DED040B53EC102B9DED24
:10486000020B51EC100B02F0FBFD9FEDB10B53EC72
:10487000102BCDE906019DED060B51EC100B02F05B
:10488000BEFD2ED20B9802F0C7FB9FEDA70B53EC99
:10489000102BCDE900019DED000B51EC100B02F047
:1048A0000FFCCDE904010A9802F0B6FBCDE9020144
:1048B0009DED040B53EC102B9DED020B51EC100BF6
:1048C00002F078FA9FED9A0B53EC102BCDE906011C
:1048D0009DED060B51EC100B02F091FD01D201246D
:1048E00000E000240B9802F097FB9FED8F0B53EC38
:1048F000102BCDE900019DED000B51EC100B02F0E7
:10490000DFFBCDE904010A9802F086FBCDE9020144
:104910009DED040B53EC102B9DED020B51EC100B95
:1049200000E000E202F09CFD9FED810B53EC102BA8
:10493000CDE906019DED060B51EC100B02F084FB56
:104940002ED20B9802F068FB9FED770B53EC102BE7
:10495000CDE900019DED000B51EC100B02F0B0FB16
:10496000CDE904010A9802F057FBCDE902019DED63
:10497000040B53EC102B9DED020B51EC100B02F0CD
:1049800019FA9FED6B0B53EC102BCDE906019DED51
:10499000060B51EC100B02F057FB01D2012000E096
:1049A00000200443F4B30A98C0EB00101990624849
:1049B0000068B0F902004042149060480068B0F905
:1049C0000200404213905E480068B0F90200129065
:1049D0005C480068B0F90200119014991998401AC7
:1049E000189013991998401A179012991998401A0B
:1049F000169011991998401A1590159800EB4001DE
:104A00000A9801EB40001490189800EB40010A98B6
:104A10004042C1EB40001390179800EB40010A9808
:104A2000404200E015E0C1EB40001290169800EB08
:104A3000400102220A9802FB00101190119803B263
:104A4000129802B2139801B2149800B2FBF7DCFF7F
:104A500069E10A9802F0E0FA9FED330B53EC102B5A
:104A6000CDE900019DED000B51EC100B02F028FB8D
:104A7000CDE904010B9802F0CFFACDE902019DEDDA
:104A8000040B53EC102B9DED020B51EC100B02F0BC
:104A9000E7FC9FED270B53EC102BCDE906019DEDB4
:104AA000060B51EC100B02F0AAFC5CD20A9802F043
:104AB000B3FA9FED1D0B53EC102BCDE900019DEDDA
:104AC000000B51EC100B02F0FBFACDE904010B983E
:104AD00002F0A2FACDE902019DED040B53EC102B7C
:104AE0009DED020B51EC100B02F064F92CE000007C
:104AF00000140240A0860100B00000200000024027
:104B00007C00002080000020700000207100002048
:104B1000740000207500002076000020780000203E
:104B20000010024000080240333333333333FB3F7D
:104B30000000000000000000900000209400002011
:104B4000980000209C0000201FED070B53EC102B59
:104B5000CDE906019DED060B51EC100B02F04FFC68
:104B600001D2012400E000240A9802F055FA1FED5A
:104B7000120B53EC102BCDE900019DED000B51EC15
:104B8000100B02F09DFACDE904010B9802F044FAF3
:104B9000CDE902019DED040B53EC102B9DED020BB2
:104BA00051EC100B02F05CFC1FED1F0B53EC102BB3
:104BB000CDE906019DED060B51EC100B02F044FA15
:104BC0002ED20A9802F028FA1FED290B53EC102B75
:104BD000CDE900019DED000B51EC100B02F070FAD5
:104BE000CDE904010B9802F017FACDE902019DED21
:104BF000040B53EC102B9DED020B51EC100B02F04B
:104C0000D9F81FED350B53EC102BCDE906019DEDC6
:104C1000060B51EC100B02F017FA01D2012000E054
:104C200000200443ECB30B98C0EB00101990FD4832
:104C30000068B0F902001490FB480068B0F9020067
:104C400040421390F9480068B0F9020040421290C7
:104C5000F7480068B0F90200119014991998401AA9
:104C6000189013991998401A179012991998401A88
:104C7000169011991998401A1590159800EB40015B
:104C80000B9801EB40001490189800EB40010B9832
:104C900001EB40001390179800EB40010B98404245
:104CA00000E015E0C1EB400012900B98400041423B
:104CB000169800EB4000081A1190119803B2129850
:104CC00002B2139801B2149800B2FBF79DFE2AE0DD
:104CD000DDE90A104843002810DA0B984042C0EB87
:104CE000C00000B207900B98C0EBC00000B2069065
:104CF000642201461046079BFBF786FEDDE90A1099
:104D0000484300280FDB0B984042C0EBC00000B2C4
:104D100007900B98C0EBC00000B2642306901946C0
:104D2000079AFBF771FE0998F0B3099800EB800031
:104D300040001990BB480068B0F902001490BA48CE
:104D40000068B0F902001390B8480068B0F902009A
:104D50001290B7480068B0F90200119014991998A0
:104D6000401A189013991998401A17901299199887
:104D7000401A169011991998401A1590159800EB41
:104D80004001099801EB40001490189800EB400195
:104D9000099801EB40001390179800EB4001099827
:104DA00001EB4000129000E011E0169800EB40018A
:104DB0000222099802FB00101190119803B2129878
:104DC00002B2139801B2149800B2FBF71DFEB42290
:104DD00098494FF4FA70FDF709FDAAE49648006877
:104DE000807A032841F0EE8093480068C07A022858
:104DF000F8D1B4228F494FF4FA70FDF7F7FC102177
:104E00008E48FCF71DFD10218D48FCF710FD10B9F0
:104E1000FEF720FF01E0FEF713FF10218748FCF7A3
:104E200006FD10B9FEF702FF01E0FEF7F5FE2021B6
:104E30008348FCF7FCFC012817D101218048FCF7CE
:104E4000F6FC012811D17F48007870B97E480078BF
:104E500058B97E48007840B97D48007828B97D4827
:104E6000007810B901F0CAFB02E001207749087010
:104E700001217348FCF7DBFC18B172480078012867
:104E80001CD173480078C8B94FF4FA70FEF770FC73
:104E900001216B48FCF7CBFC18B16A480078012867
:104EA0000CD1012001F0B4FE40B14FF4FA70FEF7CE
:104EB0005FFC67480078401C654908702021604805
:104EC000FCF7B5FC18B16048007801281CD1614896
:104ED0000078C8B94FF4FA70FEF74AFC2021584810
:104EE000FCF7A5FC18B15848007801280CD1012026
:104EF00001F0F6FE40B14FF4FA70FEF739FC554868
:104F00000078401C534908700B9848B90A9838B982
:104F1000099828B900231A4619461846FBF774FD6C
:104F20000B9810B90A9800287BD00B9802F074F8FF
:104F30009FED490B53EC102BCDE900019DED000BCB
:104F400051EC100B02F0BCF8CDE904010A9802F014
:104F500063F8CDE902019DED040B53EC102B9DEDA0
:104F6000020B51EC100B02F07BFA9FED3D0B53EC62
:104F7000102BCDE906019DED060B51EC100B02F054
:104F80003EFA2ED20B9802F047F89FED330B53EC0C
:104F9000102BCDE900019DED000B51EC100B02F040
:104FA0008FF8CDE904010A9802F036F8CDE9020144
:104FB0009DED040B53EC102B9DED020B51EC100BEF
:104FC00001F0F8FE9FED260B53EC102BCDE9060106
:104FD0009DED060B51EC100B02F011FA01D20124E9
:104FE00000E000240B9802F017F89FED1B0B53EC28
:104FF000102BCDE900019DED000B51EC100B02F0E0
:105000005FF8CDE904010A9802F006F8CDE9020143
:105010009DED040B53EC102B9DED020B51EC100B8E
:1050200022E0F4E19000002094000020980000208D
:105030009C000020A0860100B0000020000002407B
:105040000008024070000020710000207400002061
:105050007500002076000020333333333333FB3FB9
:10506000000000000000000002F0FAF91FED040B40
:1050700053EC102BCDE906019DED060B51EC100B06
:1050800001F0E2FF2ED20B9801F0C6FF1FED0E0BD0
:1050900053EC102BCDE900019DED000B51EC100BF2
:1050A00002F00EF8CDE904010A9801F0B5FFCDE950
:1050B00002019DED040B53EC102B9DED020B51EC06
:1050C000100B01F077FE1FED1A0B53EC102BCDE9FE
:1050D00006019DED060B51EC100B01F0B5FF01D25E
:1050E000012000E000200443F4B30A98C0EB001054
:1050F0001990FE480068B0F9020040421490FC4844
:105100000068B0F9020040421390FA480068B0F914
:1051100002001290F8480068B0F90200119014994A
:105120001998401A189013991998401A17901299C3
:105130001998401A169011991998401A15901598B7
:1051400000EB40010A9801EB40001490189800EB26
:1051500040010A984042C1EB40001390179800EBC1
:1051600040010A98404200E015E0C1EB4000129077
:10517000169800EB400102220A9802FB00101190E1
:10518000119803B2129802B2139801B2149800B2A7
:10519000FBF73AFC3BE10A9801F03EFF1FED520B92
:1051A00053EC102BCDE900019DED000B51EC100BE1
:1051B00001F086FFCDE904010B9801F02DFFCDE948
:1051C00002019DED040B53EC102B9DED020B51ECF5
:1051D000100B02F045F91FED5E0B53EC102BCDE9DF
:1051E00006019DED060B51EC100B02F008F92ED2D2
:1051F0000A9801F011FF1FED680B53EC102BCDE95D
:1052000000019DED000B51EC100B01F059FFCDE9B1
:1052100004010B9801F000FFCDE902019DED040BA4
:1052200053EC102B9DED020B51EC100B01F0C2FD65
:105230001FED750B53EC102BCDE906019DED060B10
:1052400051EC100B02F0DBF801D2012400E0002445
:105250000A9801F0E1FE1FED800B53EC102BCDE915
:1052600000019DED000B51EC100B01F029FFCDE981
:1052700004010B9801F0D0FECDE902019DED040B75
:1052800053EC102B9DED020B51EC100B02F0E8F8E3
:105290001FED8D0B53EC102BCDE906019DED060B98
:1052A00051EC100B01F0D0FE2ED20A9801F0B4FEA2
:1052B0001FED970B53EC102BCDE900019DED000B7A
:1052C00051EC100B01F0FCFECDE904010B9801F04C
:1052D000A3FECDE902019DED040B53EC102B9DEDD7
:1052E000020B51EC100B01F065FD1FEDA30B53EC0D
:1052F000102BCDE906019DED060B51EC100B01F0D2
:10530000A3FE01D2012000E000200443ECB30B987F
:10531000C0EB0010199075480068B0F902001490B5
:1053200073480068B0F90200404213907148006869
:10533000B0F90200404212906F480068B0F90200D4
:10534000119014991998401A189013991998401AA5
:10535000179012991998401A169011991998401A95
:105360001590159800EB40010B9801EB400014904C
:10537000189800EB40010B9801EB40001390179830
:1053800000EB40010B98404200E015E0C1EB40000B
:1053900012900B9840004142169800EB4000081A0A
:1053A0001190119803B2129802B2139801B2149896
:1053B00000B2FBF729FB2AE0DDE90A104843002888
:1053C00010DA0B984042C0EBC00000B207900B9877
:1053D000C0EBC00000B20690642201461046079B55
:1053E000FBF712FBDDE90A10484300280FDB0B989E
:1053F0004042C0EBC00000B207900B98C0EBC00069
:1054000000B2642306901946079AFBF7FDFA099843
:1054100010F1C80F02DD0998C82878DB37490898D1
:10542000884203DB49420898884270DD099810F1F0
:10543000C80F06DC0998C830079000EBD070401008
:1054400009900998C82806DB0998C838079000EB2E
:10545000D07040100990099800EB8000400019902E
:1054600022480068B0F90200149021480068B0F9A1
:10547000020013901F480068B0F9020012901E4805
:105480000068B0F90200119014991998401A189008
:1054900013991998401A179012991998401A169052
:1054A00011991998401A1590159800EB4001099828
:1054B00001EB40001490189800EB4001099801EBB3
:1054C00040001390179800EB4001099801EB400051
:1054D0001290169800EB40010222099802FB00107E
:1054E0001190119803B2129802B20AE090000020C5
:1054F00094000020980000209C00002076FDFFFF13
:1055000005E0139801B2149800B2FBF77DFAFDF79D
:1055100035FEFE48007810B90120FC490870FC48AF
:10552000008880B20D90FB48008880B20C90FA4948
:105530000898884211DAF948007801280DD1F3481B
:105540000078012809D1662001F062FB28B1F348F8
:105550000078401CC1B2F1480170EF4908988842B8
:1055600011DAEF48007801280DD1E84800780128C9
:1055700009D14FF4527001F0B3FB20B1E848007834
:10558000401CE7490870089810F1640F10DBE348ED
:105590000078022803D0E2480078022808D1DB48CE
:1055A0000078012804D1D9480078401CD7490870F8
:1055B000D9490898884210DAD848007802280CD1D6
:1055C000D2480078022808D1942001F021FB20B1B4
:1055D000D2480078401CD1490870CF4908988842C9
:1055E00011DACF48007802280DD1C8480078022887
:1055F00009D140F2852001F073FB20B1C848007842
:10560000401CC7490870089810F1640F10DBC348AC
:105610000078032803D0C2480078032808D1BB488B
:105620000078022804D1B9480078401CB7490870B6
:10563000B9490898884213DAB848007803280FD18E
:10564000B248007803280BD1FEF700FA40B10F20D2
:1056500001F0DEFA20B1B1480078401CAF49087073
:10566000AD490898884213DAAD48007803280FD175
:10567000A648007803280BD1FEF7E8F940B10120D5
:1056800001F02EFB20B1A6480078401CA449087008
:10569000089810F1640F11DBA0480078042803D0AB
:1056A0009F480078042809D198480078032805D13C
:1056B00096480078401CC1B29448017096490898F9
:1056C000884210DA9548007804280CD18F48007879
:1056D000042808D1F02001F09BFA20B18F4800780F
:1056E000401C8E4908708C490898884210DA8C4812
:1056F000007804280CD185480078042808D10120BE
:1057000001F0EEFA20B186480078401C8449087008
:10571000089810F1640F10DB80480078052803D04A
:105720007F480078052808D178480078042804D1FB
:1057300076480078401C7549087077490898884277
:1057400010DA7648007805280CD1704800780528D2
:1057500008D16E2001F05CFA20B170480078401C3E
:105760006E4908706C490898884211DA6C480078D4
:1057700005280DD165480078052809D14FF49670A9
:1057800001F0AEFA20B166480078401C6449087008
:10579000089810F1640F10DB60480078062803D0E9
:1057A0005F480078062808D158480078052804D1B9
:1057B00056480078401C5549087057490898884257
:1057C00010DA5648007806280CD150480078062890
:1057D00008D1D62001F01CFA20B150480078401CB6
:1057E0004E4908704C490898884215DA4C480078B0
:1057F000062811D14548007806280DD14748007881
:10580000072809D140F28F2001F06AFA20B14448FC
:105810000078401C42490870089810F1640F10DBB2
:105820003E480078072803D03D480078072808D173
:1058300036480078062804D134480078401C3349A3
:10584000087035490898884214DA344800780728E7
:1058500010D12E48007807280CD1FEF721F948B165
:10586000D62001F0D5F928B12C480078401CC1B2EF
:105870002A48017028490898884214DA2848007894
:10588000072810D12148007807280CD1FEF708F925
:1058900048B14FF4967001F023FA20B12048007807
:1058A000401C1F490870089810F1640F10DB1B485A
:1058B0000078082803D01A480078082808D113482F
:1058C0000078072804D111480078401C0F4908705F
:1058D00011490898884210DA1048007808280CD13D
:1058E0000A480078082808D1C42001F091F920B1B5
:1058F0000A480078401C09490870074908988842FE
:105900001EDA0748007808281AD10BE0780000203A
:105910007C000020800000206EFDFFFF750000204D
:1059200076000020FE480078082809D140F2852042
:1059300001F0D6F920B1FB480078401CF949087005
:10594000089810F1640F10DBF7480078092803D09D
:10595000F4480078092808D1F1480078082804D1D3
:10596000EF480078401CEE490870F04908988842DA
:1059700017DAED480078092813D1E948007809289A
:105980000FD1E84800780A280BD1FEF75FF840B144
:105990000F2001F03DF920B1E3480078401CE249B6
:1059A0000870E2490898884213DADE48007809282E
:1059B0000FD1DB48007809280BD1FEF747F840B13A
:1059C000012001F08DF920B1D6480078401CD5495E
:1059D0000870089810F1640F10DBD34800780A288B
:1059E00003D0D04800780A2808D1CD48007809288B
:1059F00004D1CB480078401CC9490870CB490898AD
:105A0000884210DAC84800780A280CD1C4480078C7
:105A10000A2808D1F02001F0FBF820B1C248007834
:105A2000401CC1490870C1490898884210DABD4835
:105A300000780A280CD1BA4800780A2808D1012039
:105A400001F04EF920B1B7480078401CB549087004
:105A5000089810F1640F10DBB34800780B2803D0CE
:105A6000B04800780B2808D1AD4800780A2804D146
:105A7000AB480078401CAA490870AC490898884295
:105A800010DAA94800780B280CD1A54800780B281B
:105A900008D16E2001F0BCF820B1A3480078401C6A
:105AA000A1490870A1490898884211DA9D480078F8
:105AB0000B280DD19A4800780B2809D14FF4967025
:105AC00001F00EF920B197480078401C9549087004
:105AD000089810F1640F10DB934800780C2803D06D
